{
  "contractName": "BancorFormula",
  "abi": [
    {
      "inputs": [
        {
          "internalType": "uint256",
          "name": "_supply",
          "type": "uint256"
        },
        {
          "internalType": "uint256",
          "name": "_connectorBalance",
          "type": "uint256"
        },
        {
          "internalType": "uint32",
          "name": "_connectorWeight",
          "type": "uint32"
        },
        {
          "internalType": "uint256",
          "name": "_depositAmount",
          "type": "uint256"
        }
      ],
      "name": "calculatePurchaseReturn",
      "outputs": [
        {
          "internalType": "uint256",
          "name": "",
          "type": "uint256"
        }
      ],
      "stateMutability": "view",
      "type": "function"
    },
    {
      "inputs": [
        {
          "internalType": "uint256",
          "name": "_supply",
          "type": "uint256"
        },
        {
          "internalType": "uint256",
          "name": "_connectorBalance",
          "type": "uint256"
        },
        {
          "internalType": "uint32",
          "name": "_connectorWeight",
          "type": "uint32"
        },
        {
          "internalType": "uint256",
          "name": "_sellAmount",
          "type": "uint256"
        }
      ],
      "name": "calculateSaleReturn",
      "outputs": [
        {
          "internalType": "uint256",
          "name": "",
          "type": "uint256"
        }
      ],
      "stateMutability": "view",
      "type": "function"
    }
  ],
  "bytecode": "0x60806040523480156200001157600080fd5b50701c35fedd14ffffffffffffffffffffffff60006020608081106200003c576200003b620011a8565b5b0181905550701b0ce43b323fffffffffffffffffffffff60006021608081106200006b576200006a620011a8565b5b01819055507019f0028ec1ffffffffffffffffffffffff60006022608081106200009a5762000099620011a8565b5b01819055507018ded91f0e7fffffffffffffffffffffff6000602360808110620000c957620000c8620011a8565b5b01819055507017d8ec7f0417ffffffffffffffffffffff6000602460808110620000f857620000f7620011a8565b5b01819055507016ddc6556cdbffffffffffffffffffffff6000602560808110620001275762000126620011a8565b5b01819055507015ecf52776a1ffffffffffffffffffffff6000602660808110620001565762000155620011a8565b5b01819055507015060c256cb2ffffffffffffffffffffff6000602760808110620001855762000184620011a8565b5b0181905550701428a2f98d72ffffffffffffffffffffff6000602860808110620001b457620001b3620011a8565b5b01819055507013545598e5c23fffffffffffffffffffff6000602960808110620001e357620001e2620011a8565b5b0181905550701288c4161ce1dfffffffffffffffffffff6000602a60808110620002125762000211620011a8565b5b01819055507011c592761c666fffffffffffffffffffff6000602b60808110620002415762000240620011a8565b5b018190555070110a688680a757ffffffffffffffffffff6000602c6080811062000270576200026f620011a8565b5b0181905550701056f1b5bedf77ffffffffffffffffffff6000602d608081106200029f576200029e620011a8565b5b0181905550700faadceceeff8bffffffffffffffffffff6000602e60808110620002ce57620002cd620011a8565b5b0181905550700f05dc6b27edadffffffffffffffffffff6000602f60808110620002fd57620002fc620011a8565b5b0181905550700e67a5a25da4107fffffffffffffffffff60006030608081106200032c576200032b620011a8565b5b0181905550700dcff115b14eedffffffffffffffffffff60006031608081106200035b576200035a620011a8565b5b0181905550700d3e7a392431239fffffffffffffffffff60006032608081106200038a5762000389620011a8565b5b0181905550700cb2ff529eb71e4fffffffffffffffffff6000603360808110620003b957620003b8620011a8565b5b0181905550700c2d415c3db974afffffffffffffffffff6000603460808110620003e857620003e7620011a8565b5b0181905550700bad03e7d883f69bffffffffffffffffff6000603560808110620004175762000416620011a8565b5b0181905550700b320d03b2c343d5ffffffffffffffffff6000603660808110620004465762000445620011a8565b5b0181905550700abc25204e02828dffffffffffffffffff6000603760808110620004755762000474620011a8565b5b0181905550700a4b16f74ee4bb207fffffffffffffffff6000603860808110620004a457620004a3620011a8565b5b01819055507009deaf736ac1f569ffffffffffffffffff6000603960808110620004d357620004d2620011a8565b5b0181905550700976bd9952c7aa957fffffffffffffffff6000603a60808110620005025762000501620011a8565b5b01819055507009131271922eaa606fffffffffffffffff6000603b60808110620005315762000530620011a8565b5b01819055507008b380f3558668c46fffffffffffffffff6000603c6080811062000560576200055f620011a8565b5b0181905550700857ddf0117efa215bffffffffffffffff6000603d608081106200058f576200058e620011a8565b5b01819055507007ffffffffffffffffffffffffffffffff6000603e60808110620005be57620005bd620011a8565b5b01819055507007abbf6f6abb9d087fffffffffffffffff6000603f60808110620005ed57620005ec620011a8565b5b018190555070075af62cbac95f7dfa7fffffffffffffff60006040608081106200061c576200061b620011a8565b5b018190555070070d7fb7452e187ac13fffffffffffffff60006041608081106200064b576200064a620011a8565b5b01819055507006c3390ecc8af379295fffffffffffffff60006042608081106200067a5762000679620011a8565b5b018190555070067c00a3b07ffc01fd6fffffffffffffff6000604360808110620006a957620006a8620011a8565b5b0181905550700637b647c39cbb9d3d27ffffffffffffff6000604460808110620006d857620006d7620011a8565b5b01819055507005f63b1fc104dbd39587ffffffffffffff6000604560808110620007075762000706620011a8565b5b01819055507005b771955b36e12f7235ffffffffffffff6000604660808110620007365762000735620011a8565b5b018190555070057b3d49dda84556d6f6ffffffffffffff6000604760808110620007655762000764620011a8565b5b018190555070054183095b2c8ececf30ffffffffffffff6000604860808110620007945762000793620011a8565b5b018190555070050a28be635ca2b888f77fffffffffffff6000604960808110620007c357620007c2620011a8565b5b01819055507004d5156639708c9db33c3fffffffffffff6000604a60808110620007f257620007f1620011a8565b5b01819055507004a23105873875bd52dfdfffffffffffff6000604b60808110620008215762000820620011a8565b5b0181905550700471649d87199aa990756fffffffffffff6000604c6080811062000850576200084f620011a8565b5b01819055507004429a21a029d4c1457cfbffffffffffff6000604d608081106200087f576200087e620011a8565b5b0181905550700415bc6d6fb7dd71af2cb3ffffffffffff6000604e60808110620008ae57620008ad620011a8565b5b01819055507003eab73b3bbfe282243ce1ffffffffffff6000604f60808110620008dd57620008dc620011a8565b5b01819055507003c1771ac9fb6b4c18e229ffffffffffff60006050608081106200090c576200090b620011a8565b5b0181905550700399e96897690418f785257fffffffffff60006051608081106200093b576200093a620011a8565b5b0181905550700373fc456c53bb779bf0ea9fffffffffff60006052608081106200096a5762000969620011a8565b5b018190555070034f9e8e490c48e67e6ab8bfffffffffff6000605360808110620009995762000998620011a8565b5b018190555070032cbfd4a7adc790560b3337ffffffffff6000605460808110620009c857620009c7620011a8565b5b018190555070030b50570f6e5d2acca94613ffffffffff6000605560808110620009f757620009f6620011a8565b5b01819055507002eb40f9f620fda6b56c2861ffffffffff600060566080811062000a265762000a25620011a8565b5b01819055507002cc8340ecb0d0f520a6af58ffffffffff600060576080811062000a555762000a54620011a8565b5b01819055507002af09481380a0a35cf1ba02ffffffffff600060586080811062000a845762000a83620011a8565b5b0181905550700292c5bdd3b92ec810287b1b3fffffffff600060596080811062000ab35762000ab2620011a8565b5b0181905550700277abdcdab07d5a77ac6d6b9fffffffff6000605a6080811062000ae25762000ae1620011a8565b5b018190555070025daf6654b1eaa55fd64df5efffffffff6000605b6080811062000b115762000b10620011a8565b5b0181905550700244c49c648baa98192dce88b7ffffffff6000605c6080811062000b405762000b3f620011a8565b5b018190555070022ce03cd5619a311b2471268bffffffff6000605d6080811062000b6f5762000b6e620011a8565b5b0181905550700215f77c045fbe885654a44a0fffffffff6000605e6080811062000b9e5762000b9d620011a8565b5b01819055507001ffffffffffffffffffffffffffffffff6000605f6080811062000bcd5762000bcc620011a8565b5b01819055507001eaefdbdaaee7421fc4d3ede5ffffffff600060606080811062000bfc5762000bfb620011a8565b5b01819055507001d6bd8b2eb257df7e8ca57b09bfffffff600060616080811062000c2b5762000c2a620011a8565b5b01819055507001c35fedd14b861eb0443f7f133fffffff600060626080811062000c5a5762000c59620011a8565b5b01819055507001b0ce43b322bcde4a56e8ada5afffffff600060636080811062000c895762000c88620011a8565b5b018190555070019f0028ec1fff007f5a195a39dfffffff600060646080811062000cb85762000cb7620011a8565b5b018190555070018ded91f0e72ee74f49b15ba527ffffff600060656080811062000ce75762000ce6620011a8565b5b018190555070017d8ec7f04136f4e5615fd41a63ffffff600060666080811062000d165762000d15620011a8565b5b018190555070016ddc6556cdb84bdc8d12d22e6fffffff600060676080811062000d455762000d44620011a8565b5b018190555070015ecf52776a1155b5bd8395814f7fffff600060686080811062000d745762000d73620011a8565b5b018190555070015060c256cb23b3b3cc3754cf40ffffff600060696080811062000da35762000da2620011a8565b5b01819055507001428a2f98d728ae223ddab715be3fffff6000606a6080811062000dd25762000dd1620011a8565b5b018190555070013545598e5c23276ccf0ede68034fffff6000606b6080811062000e015762000e00620011a8565b5b01819055507001288c4161ce1d6f54b7f61081194fffff6000606c6080811062000e305762000e2f620011a8565b5b018190555070011c592761c666aa641d5a01a40f17ffff6000606d6080811062000e5f5762000e5e620011a8565b5b0181905550700110a688680a7530515f3e6e6cfdcdffff6000606e6080811062000e8e5762000e8d620011a8565b5b01819055507001056f1b5bedf75c6bcb2ce8aed428ffff6000606f6080811062000ebd5762000ebc620011a8565b5b01819055506ffaadceceeff8a0890f3875f008277fff600060706080811062000eeb5762000eea620011a8565b5b01819055506ff05dc6b27edad306388a600f6ba0bfff600060716080811062000f195762000f18620011a8565b5b01819055506fe67a5a25da41063de1495d5b18cdbfff600060726080811062000f475762000f46620011a8565b5b01819055506fdcff115b14eedde6fc3aa5353f2e4fff600060736080811062000f755762000f74620011a8565b5b01819055506fd3e7a3924312399f9aae2e0f868f8fff600060746080811062000fa35762000fa2620011a8565b5b01819055506fcb2ff529eb71e41582cccd5a1ee26fff600060756080811062000fd15762000fd0620011a8565b5b01819055506fc2d415c3db974ab32a51840c0b67edff600060766080811062000fff5762000ffe620011a8565b5b01819055506fbad03e7d883f69ad5b0a186184e06bff60006077608081106200102d576200102c620011a8565b5b01819055506fb320d03b2c343d4829abd6075f0cc5ff60006078608081106200105b576200105a620011a8565b5b01819055506fabc25204e02828d73c6e80bcdb1a95bf6000607960808110620010895762001088620011a8565b5b01819055506fa4b16f74ee4bb2040a1ec6c15fbbf2df6000607a60808110620010b757620010b6620011a8565b5b01819055506f9deaf736ac1f569deb1b5ae3f36c130f6000607b60808110620010e557620010e4620011a8565b5b01819055506f976bd9952c7aa957f5937d790ef650376000607c60808110620011135762001112620011a8565b5b01819055506f9131271922eaa6064b73a22d0bd4f2bf6000607d60808110620011415762001140620011a8565b5b01819055506f8b380f3558668c46c91c49a2f8e967b96000607e608081106200116f576200116e620011a8565b5b01819055506f857ddf0117efa215952912839f6473e66000607f608081106200119d576200119c620011a8565b5b0181905550620011d7565b7f4e487b7100000000000000000000000000000000000000000000000000000000600052603260045260246000fd5b61118c80620011e76000396000f3fe608060405234801561001057600080fd5b50600436106100365760003560e01c806329a00e7c1461003b57806349f9b0f71461006b575b600080fd5b61005560048036038101906100509190610e21565b61009b565b6040516100629190610e97565b60405180910390f35b61008560048036038101906100809190610e21565b6101a0565b6040516100929190610e97565b60405180910390f35b600080851180156100ac5750600084115b80156100be575060008363ffffffff16115b80156100d95750620f424063ffffffff168363ffffffff1611155b6100e257600080fd5b60008214156100f45760009050610198565b620f424063ffffffff168363ffffffff161415610137576101308461012284886102d990919063ffffffff16565b6102ef90919063ffffffff16565b9050610198565b600080600061014f878661030590919063ffffffff16565b9050610160818888620f424061031b565b809350819450505060008260ff16610181858b6102d990919063ffffffff16565b901c905088816101919190610ee1565b9450505050505b949350505050565b600080851180156101b15750600084115b80156101c3575060008363ffffffff16115b80156101de5750620f424063ffffffff168363ffffffff1611155b80156101ea5750848211155b6101f357600080fd5b600082141561020557600090506102d1565b84821415610215578390506102d1565b620f424063ffffffff168363ffffffff161415610258576102518561024384876102d990919063ffffffff16565b6102ef90919063ffffffff16565b90506102d1565b600080600084886102699190610ee1565b905061027a8882620f42408961031b565b8093508194505050600061029784896102d990919063ffffffff16565b905060008360ff1689901b90506102c9856102bb838561038790919063ffffffff16565b6102ef90919063ffffffff16565b955050505050505b949350505050565b600081836102e79190610f15565b905092915050565b600081836102fd9190610f9e565b905092915050565b600081836103139190610fcf565b905092915050565b60008060008363ffffffff168563ffffffff16610338898961039d565b6103429190610f15565b61034c9190610f9e565b905060006103598261052e565b905061037781607f61036b9190611032565b60ff1683901c82610610565b8193509350505094509492505050565b600081836103959190610ee1565b905092915050565b60007001ffffffffffffffffffffffffffffffff8311156103c1576103c0611066565b5b600080836f80000000000000000000000000000000866103e19190610f15565b6103eb9190610f9e565b9050700100000000000000000000000000000000811061045957600061042b6f80000000000000000000000000000000836104269190610f9e565b610d1f565b90508060ff1682901c91506f800000000000000000000000000000008160ff166104559190610f15565b9250505b6f80000000000000000000000000000000811115610501576000607f90505b60008160ff1611156104ff576f8000000000000000000000000000000082836104a19190610f15565b6104ab9190610f9e565b915070010000000000000000000000000000000082106104ee57600182901c91506001816104d99190611032565b60ff166001901b836104eb9190610fcf565b92505b806104f890611095565b9050610478565b505b607a60ff166f02c5c85fdf473de6af278ece600fcbda836105229190610f15565b901c9250505092915050565b600080602090506000607f90505b8060ff1660018361054d91906110bf565b60ff1610156105a35760006002828461056691906110bf565b61057091906110f6565b90508460008260ff166080811061058a57610589611127565b5b0154106105995780925061059d565b8091505b5061053c565b8360008260ff16608081106105bb576105ba611127565b5b0154106105cc57809250505061060b565b8360008360ff16608081106105e4576105e3611127565b5b0154106105f557819250505061060b565b600061060457610603611066565b5b6000925050505b919050565b60008083905060008360ff1685836106289190610f15565b901c91506f03442c4e6074a82f1797f72ac0000000826106489190610f15565b816106539190610fcf565b90508360ff1685836106659190610f15565b901c91506f0116b96f757c380fb287fd0e40000000826106859190610f15565b816106909190610fcf565b90508360ff1685836106a29190610f15565b901c91506e45ae5bdd5f0e03eca1ff4390000000826106c19190610f15565b816106cc9190610fcf565b90508360ff1685836106de9190610f15565b901c91506e0defabf91302cd95b9ffda50000000826106fd9190610f15565b816107089190610fcf565b90508360ff16858361071a9190610f15565b901c91506e02529ca9832b22439efff9b8000000826107399190610f15565b816107449190610fcf565b90508360ff1685836107569190610f15565b901c91506d54f1cf12bd04e516b6da88000000826107749190610f15565b8161077f9190610fcf565b90508360ff1685836107919190610f15565b901c91506d0a9e39e257a09ca2d6db51000000826107af9190610f15565b816107ba9190610fcf565b90508360ff1685836107cc9190610f15565b901c91506d012e066e7b839fa050c309000000826107ea9190610f15565b816107f59190610fcf565b90508360ff1685836108079190610f15565b901c91506c1e33d7d926c329a1ad1a800000826108249190610f15565b8161082f9190610fcf565b90508360ff1685836108419190610f15565b901c91506c02bee513bdb4a6b19b5f8000008261085e9190610f15565b816108699190610fcf565b90508360ff16858361087b9190610f15565b901c91506b3a9316fa79b88eccf2a00000826108979190610f15565b816108a29190610fcf565b90508360ff1685836108b49190610f15565b901c91506b048177ebe1fa812375200000826108d09190610f15565b816108db9190610fcf565b90508360ff1685836108ed9190610f15565b901c91506a5263fe90242dcbacf00000826109089190610f15565b816109139190610fcf565b90508360ff1685836109259190610f15565b901c91506a057e22099c030d94100000826109409190610f15565b8161094b9190610fcf565b90508360ff16858361095d9190610f15565b901c91506957e22099c030d9410000826109779190610f15565b816109829190610fcf565b90508360ff1685836109949190610f15565b901c915069052b6b54569976310000826109ae9190610f15565b816109b99190610fcf565b90508360ff1685836109cb9190610f15565b901c9150684985f67696bf748000826109e49190610f15565b816109ef9190610fcf565b90508360ff168583610a019190610f15565b901c91506803dea12ea99e49800082610a1a9190610f15565b81610a259190610fcf565b90508360ff168583610a379190610f15565b901c91506731880f2214b6e00082610a4f9190610f15565b81610a5a9190610fcf565b90508360ff168583610a6c9190610f15565b901c915067025bcff56eb3600082610a849190610f15565b81610a8f9190610fcf565b90508360ff168583610aa19190610f15565b901c9150661b722e10ab100082610ab89190610f15565b81610ac39190610fcf565b90508360ff168583610ad59190610f15565b901c91506601317c7007700082610aec9190610f15565b81610af79190610fcf565b90508360ff168583610b099190610f15565b901c9150650cba84aafa0082610b1f9190610f15565b81610b2a9190610fcf565b90508360ff168583610b3c9190610f15565b901c91506482573a0a0082610b519190610f15565b81610b5c9190610fcf565b90508360ff168583610b6e9190610f15565b901c91506405035ad90082610b839190610f15565b81610b8e9190610fcf565b90508360ff168583610ba09190610f15565b901c9150632f881b0082610bb49190610f15565b81610bbf9190610fcf565b90508360ff168583610bd19190610f15565b901c91506301b2934082610be59190610f15565b81610bf09190610fcf565b90508360ff168583610c029190610f15565b901c9150620efc4082610c159190610f15565b81610c209190610fcf565b90508360ff168583610c329190610f15565b901c9150617fe082610c449190610f15565b81610c4f9190610fcf565b90508360ff168583610c619190610f15565b901c915061042082610c739190610f15565b81610c7e9190610fcf565b90508360ff168583610c909190610f15565b901c9150602182610ca19190610f15565b81610cac9190610fcf565b90508360ff168583610cbe9190610f15565b901c9150600182610ccf9190610f15565b81610cda9190610fcf565b90508360ff166001901b856f0688589cc0e9505e2f2fee558000000083610d019190610f9e565b610d0b9190610fcf565b610d159190610fcf565b9250505092915050565b600080600090506000839050610100811015610d5f575b6001811115610d5a57600181901c9050600182610d5391906110bf565b9150610d36565b610da0565b6000608090505b60008160ff161115610d9e578060ff166001901b8210610d8f578060ff1682901c915080831792505b60018160ff16901c9050610d66565b505b8192505050919050565b600080fd5b6000819050919050565b610dc281610daf565b8114610dcd57600080fd5b50565b600081359050610ddf81610db9565b92915050565b600063ffffffff82169050919050565b610dfe81610de5565b8114610e0957600080fd5b50565b600081359050610e1b81610df5565b92915050565b60008060008060808587031215610e3b57610e3a610daa565b5b6000610e4987828801610dd0565b9450506020610e5a87828801610dd0565b9350506040610e6b87828801610e0c565b9250506060610e7c87828801610dd0565b91505092959194509250565b610e9181610daf565b82525050565b6000602082019050610eac6000830184610e88565b92915050565b7f4e487b7100000000000000000000000000000000000000000000000000000000600052601160045260246000fd5b6000610eec82610daf565b9150610ef783610daf565b925082821015610f0a57610f09610eb2565b5b828203905092915050565b6000610f2082610daf565b9150610f2b83610daf565b9250817fffffffffffffffffffffffffffffffffffffffffffffffffffffffffffffffff0483118215151615610f6457610f63610eb2565b5b828202905092915050565b7f4e487b7100000000000000000000000000000000000000000000000000000000600052601260045260246000fd5b6000610fa982610daf565b9150610fb483610daf565b925082610fc457610fc3610f6f565b5b828204905092915050565b6000610fda82610daf565b9150610fe583610daf565b9250827fffffffffffffffffffffffffffffffffffffffffffffffffffffffffffffffff0382111561101a57611019610eb2565b5b828201905092915050565b600060ff82169050919050565b600061103d82611025565b915061104883611025565b92508282101561105b5761105a610eb2565b5b828203905092915050565b7f4e487b7100000000000000000000000000000000000000000000000000000000600052600160045260246000fd5b60006110a082611025565b915060008214156110b4576110b3610eb2565b5b600182039050919050565b60006110ca82611025565b91506110d583611025565b92508260ff038211156110eb576110ea610eb2565b5b828201905092915050565b600061110182611025565b915061110c83611025565b92508261111c5761111b610f6f565b5b828204905092915050565b7f4e487b7100000000000000000000000000000000000000000000000000000000600052603260045260246000fdfea26469706673582212204e7169830a7f542714d234beda0cb8bf5f80363299448cd66ef53976cd551ac764736f6c634300080a0033",
  "immutableReferences": {},
  "source": "/* Apache License\nVersion 2.0, January 2004\nhttp://www.apache.org/licenses/\n\nTERMS AND CONDITIONS FOR USE, REPRODUCTION, AND DISTRIBUTION\n\n1. Definitions.\n\n\"License\" shall mean the terms and conditions for use, reproduction,\nand distribution as defined by Sections 1 through 9 of this document.\n\n\"Licensor\" shall mean the copyright owner or entity authorized by\nthe copyright owner that is granting the License.\n\n\"Legal Entity\" shall mean the union of the acting entity and all\nother entities that control, are controlled by, or are under common\ncontrol with that entity. For the purposes of this definition,\n\"control\" means (i) the power, direct or indirect, to cause the\ndirection or management of such entity, whether by contract or\notherwise, or (ii) ownership of fifty percent (50%) or more of the\noutstanding shares, or (iii) beneficial ownership of such entity.\n\n\"You\" (or \"Your\") shall mean an individual or Legal Entity\nexercising permissions granted by this License.\n\n\"Source\" form shall mean the preferred form for making modifications,\nincluding but not limited to software source code, documentation\nsource, and configuration files.\n\n\"Object\" form shall mean any form resulting from mechanical\ntransformation or translation of a Source form, including but\nnot limited to compiled object code, generated documentation,\nand conversions to other media types.\n\n\"Work\" shall mean the work of authorship, whether in Source or\nObject form, made available under the License, as indicated by a\ncopyright notice that is included in or attached to the work\n(an example is provided in the Appendix below).\n\n\"Derivative Works\" shall mean any work, whether in Source or Object\nform, that is based on (or derived from) the Work and for which the\neditorial revisions, annotations, elaborations, or other modifications\nrepresent, as a whole, an original work of authorship. For the purposes\nof this License, Derivative Works shall not include works that remain\nseparable from, or merely link (or bind by name) to the interfaces of,\nthe Work and Derivative Works thereof.\n\n\"Contribution\" shall mean any work of authorship, including\nthe original version of the Work and any modifications or additions\nto that Work or Derivative Works thereof, that is intentionally\nsubmitted to Licensor for inclusion in the Work by the copyright owner\nor by an individual or Legal Entity authorized to submit on behalf of\nthe copyright owner. For the purposes of this definition, \"submitted\"\nmeans any form of electronic, verbal, or written communication sent\nto the Licensor or its representatives, including but not limited to\ncommunication on electronic mailing lists, source code control systems,\nand issue tracking systems that are managed by, or on behalf of, the\nLicensor for the purpose of discussing and improving the Work, but\nexcluding communication that is conspicuously marked or otherwise\ndesignated in writing by the copyright owner as \"Not a Contribution.\"\n\n\"Contributor\" shall mean Licensor and any individual or Legal Entity\non behalf of whom a Contribution has been received by Licensor and\nsubsequently incorporated within the Work.\n\n2. Grant of Copyright License. Subject to the terms and conditions of\nthis License, each Contributor hereby grants to You a perpetual,\nworldwide, non-exclusive, no-charge, royalty-free, irrevocable\ncopyright license to reproduce, prepare Derivative Works of,\npublicly display, publicly perform, sublicense, and distribute the\nWork and such Derivative Works in Source or Object form.\n\n3. Grant of Patent License. Subject to the terms and conditions of\nthis License, each Contributor hereby grants to You a perpetual,\nworldwide, non-exclusive, no-charge, royalty-free, irrevocable\n(except as stated in this section) patent license to make, have made,\nuse, offer to sell, sell, import, and otherwise transfer the Work,\nwhere such license applies only to those patent claims licensable\nby such Contributor that are necessarily infringed by their\nContribution(s) alone or by combination of their Contribution(s)\nwith the Work to which such Contribution(s) was submitted. If You\ninstitute patent litigation against any entity (including a\ncross-claim or counterclaim in a lawsuit) alleging that the Work\nor a Contribution incorporated within the Work constitutes direct\nor contributory patent infringement, then any patent licenses\ngranted to You under this License for that Work shall terminate\nas of the date such litigation is filed.\n\n4. Redistribution. You may reproduce and distribute copies of the\nWork or Derivative Works thereof in any medium, with or without\nmodifications, and in Source or Object form, provided that You\nmeet the following conditions:\n\n(a) You must give any other recipients of the Work or\nDerivative Works a copy of this License; and\n\n(b) You must cause any modified files to carry prominent notices\nstating that You changed the files; and\n\n(c) You must retain, in the Source form of any Derivative Works\nthat You distribute, all copyright, patent, trademark, and\nattribution notices from the Source form of the Work,\nexcluding those notices that do not pertain to any part of\nthe Derivative Works; and\n\n(d) If the Work includes a \"NOTICE\" text file as part of its\ndistribution, then any Derivative Works that You distribute must\ninclude a readable copy of the attribution notices contained\nwithin such NOTICE file, excluding those notices that do not\npertain to any part of the Derivative Works, in at least one\nof the following places: within a NOTICE text file distributed\nas part of the Derivative Works; within the Source form or\ndocumentation, if provided along with the Derivative Works; or,\nwithin a display generated by the Derivative Works, if and\nwherever such third-party notices normally appear. The contents\nof the NOTICE file are for informational purposes only and\ndo not modify the License. You may add Your own attribution\nnotices within Derivative Works that You distribute, alongside\nor as an addendum to the NOTICE text from the Work, provided\nthat such additional attribution notices cannot be construed\nas modifying the License.\n\nYou may add Your own copyright statement to Your modifications and\nmay provide additional or different license terms and conditions\nfor use, reproduction, or distribution of Your modifications, or\nfor any such Derivative Works as a whole, provided Your use,\nreproduction, and distribution of the Work otherwise complies with\nthe conditions stated in this License.\n\n5. Submission of Contributions. Unless You explicitly state otherwise,\nany Contribution intentionally submitted for inclusion in the Work\nby You to the Licensor shall be under the terms and conditions of\nthis License, without any additional terms or conditions.\nNotwithstanding the above, nothing herein shall supersede or modify\nthe terms of any separate license agreement you may have executed\nwith Licensor regarding such Contributions.\n\n6. Trademarks. This License does not grant permission to use the trade\nnames, trademarks, service marks, or product names of the Licensor,\nexcept as required for reasonable and customary use in describing the\norigin of the Work and reproducing the content of the NOTICE file.\n\n7. Disclaimer of Warranty. Unless required by applicable law or\nagreed to in writing, Licensor provides the Work (and each\nContributor provides its Contributions) on an \"AS IS\" BASIS,\nWITHOUT WARRANTIES OR CONDITIONS OF ANY KIND, either express or\nimplied, including, without limitation, any warranties or conditions\nof TITLE, NON-INFRINGEMENT, MERCHANTABILITY, or FITNESS FOR A\nPARTICULAR PURPOSE. You are solely responsible for determining the\nappropriateness of using or redistributing the Work and assume any\nrisks associated with Your exercise of permissions under this License.\n\n8. Limitation of Liability. In no event and under no legal theory,\nwhether in tort (including negligence), contract, or otherwise,\nunless required by applicable law (such as deliberate and grossly\nnegligent acts) or agreed to in writing, shall any Contributor be\nliable to You for damages, including any direct, indirect, special,\nincidental, or consequential damages of any character arising as a\nresult of this License or out of the use or inability to use the\nWork (including but not limited to damages for loss of goodwill,\nwork stoppage, computer failure or malfunction, or any and all\nother commercial damages or losses), even if such Contributor\nhas been advised of the possibility of such damages.\n\n9. Accepting Warranty or Additional Liability. While redistributing\nthe Work or Derivative Works thereof, You may choose to offer,\nand charge a fee for, acceptance of support, warranty, indemnity,\nor other liability obligations and/or rights consistent with this\nLicense. However, in accepting such obligations, You may act only\non Your own behalf and on Your sole responsibility, not on behalf\nof any other Contributor, and only if You agree to indemnify,\ndefend, and hold each Contributor harmless for any liability\nincurred by, or claims asserted against, such Contributor by reason\nof your accepting any such warranty or additional liability.\n\nEND OF TERMS AND CONDITIONS\n\nAPPENDIX: How to apply the Apache License to your work.\n\nTo apply the Apache License to your work, attach the following\nboilerplate notice, with the fields enclosed by brackets \"{}\"\nreplaced with your own identifying information. (Don't include\nthe brackets!)  The text should be enclosed in the appropriate\ncomment syntax for the file format. We also recommend that a\nfile or class name and description of purpose be included on the\nsame \"printed page\" as the copyright notice for easier\nidentification within third-party archives.\n\nCopyright 2017 Bprotocol Foundation\n\nLicensed under the Apache License, Version 2.0 (the \"License\");\nyou may not use this file except in compliance with the License.\nYou may obtain a copy of the License at\n\nhttp://www.apache.org/licenses/LICENSE-2.0\n\nUnless required by applicable law or agreed to in writing, software\ndistributed under the License is distributed on an \"AS IS\" BASIS,\nWITHOUT WARRANTIES OR CONDITIONS OF ANY KIND, either express or implied.\nSee the License for the specific language governing permissions and\nlimitations under the License. */\n\npragma solidity ^0.8.10;\n\nimport \"openzeppelin-solidity/contracts/utils/math/SafeMath.sol\";\n\nimport \"./Math/Power.sol\";\n\n /**\n * @title Bancor formula by Bancor\n * @dev Modified from the original by Slava Balasanov\n * https://github.com/bancorprotocol/contracts\n * Split Power.sol out from BancorFormula.sol and replace SafeMath formulas with zeppelin's SafeMath\n * Licensed to the Apache Software Foundation (ASF) under one or more contributor license agreements;\n * and to You under the Apache License, Version 2.0. \"\n */\ncontract BancorFormula is Power {\n  using SafeMath for uint256;\n   uint32 private constant MAX_WEIGHT = 1000000;\n\n   /**\n   * @dev given a token supply, connector balance, weight and a deposit amount (in the connector token),\n   * calculates the return for a given conversion (in the main token)\n   *\n   * Formula:\n   * Return = _supply * ((1 + _depositAmount / _connectorBalance) ^ (_connectorWeight / 1000000) - 1)\n   *\n   * @param _supply              token total supply\n   * @param _connectorBalance    total connector balance\n   * @param _connectorWeight     connector weight, represented in ppm, 1-1000000\n   * @param _depositAmount       deposit amount, in connector token\n   *\n   *  @return purchase return amount\n  */\n  function calculatePurchaseReturn(\n    uint256 _supply,\n    uint256 _connectorBalance,\n    uint32 _connectorWeight,\n    uint256 _depositAmount) public view  returns (uint256)\n  {\n    // validate input\n    require(_supply > 0 && _connectorBalance > 0 && _connectorWeight > 0 && _connectorWeight <= MAX_WEIGHT);\n     // special case for 0 deposit amount\n    if (_depositAmount == 0) {\n      return 0;\n    }\n     // special case if the weight = 100%\n    if (_connectorWeight == MAX_WEIGHT) {\n      return _supply.mul(_depositAmount).div(_connectorBalance);\n    }\n     uint256 result;\n    uint8 precision;\n    uint256 baseN = _depositAmount.add(_connectorBalance);\n    (result, precision) = power(\n      baseN, _connectorBalance, _connectorWeight, MAX_WEIGHT\n    );\n    uint256 newTokenSupply = _supply.mul(result) >> precision;\n    return newTokenSupply - _supply;\n  }\n   /**\n   * @dev given a token supply, connector balance, weight and a sell amount (in the main token),\n   * calculates the return for a given conversion (in the connector token)\n   *\n   * Formula:\n   * Return = _connectorBalance * (1 - (1 - _sellAmount / _supply) ^ (1 / (_connectorWeight / 1000000)))\n   *\n   * @param _supply              token total supply\n   * @param _connectorBalance    total connector\n   * @param _connectorWeight     constant connector Weight, represented in ppm, 1-1000000\n   * @param _sellAmount          sell amount, in the token itself\n   *\n   * @return sale return amount\n  */\n  function calculateSaleReturn(\n    uint256 _supply,\n    uint256 _connectorBalance,\n    uint32 _connectorWeight,\n    uint256 _sellAmount) public view returns (uint256)\n  {\n    // validate input\n    require(_supply > 0 && _connectorBalance > 0 && _connectorWeight > 0 && _connectorWeight <= MAX_WEIGHT && _sellAmount <= _supply);\n     // special case for 0 sell amount\n    if (_sellAmount == 0) {\n      return 0;\n    }\n     // special case for selling the entire supply\n    if (_sellAmount == _supply) {\n      return _connectorBalance;\n    }\n     // special case if the weight = 100%\n    if (_connectorWeight == MAX_WEIGHT) {\n      return _connectorBalance.mul(_sellAmount).div(_supply);\n    }\n     uint256 result;\n    uint8 precision;\n    uint256 baseD = _supply - _sellAmount;\n    (result, precision) = power(\n      _supply, baseD, MAX_WEIGHT, _connectorWeight\n    );\n    uint256 oldBalance = _connectorBalance.mul(result);\n    uint256 newBalance = _connectorBalance << precision;\n    return oldBalance.sub(newBalance).div(result);\n  }\n}\n",
  "sourcePath": "C:\\Users\\Vamsi\\demi\\contracts\\BancorFormula.sol",
  "compiler": {
    "name": "solc",
    "version": "0.8.10+commit.fc410830.Emscripten.clang"
  },
  "schemaVersion": "3.4.4",
  "updatedAt": "2022-01-23T08:00:15.912Z",
  "devdoc": {
    "details": "Modified from the original by Slava Balasanov https://github.com/bancorprotocol/contracts Split Power.sol out from BancorFormula.sol and replace SafeMath formulas with zeppelin's SafeMath Licensed to the Apache Software Foundation (ASF) under one or more contributor license agreements; and to You under the Apache License, Version 2.0. \"",
    "kind": "dev",
    "methods": {
      "calculatePurchaseReturn(uint256,uint256,uint32,uint256)": {
        "details": "given a token supply, connector balance, weight and a deposit amount (in the connector token), calculates the return for a given conversion (in the main token) Formula: Return = _supply * ((1 + _depositAmount / _connectorBalance) ^ (_connectorWeight / 1000000) - 1)",
        "params": {
          "_connectorBalance": "total connector balance",
          "_connectorWeight": "connector weight, represented in ppm, 1-1000000",
          "_depositAmount": "deposit amount, in connector token",
          "_supply": "token total supply"
        },
        "returns": {
          "_0": "purchase return amount"
        }
      },
      "calculateSaleReturn(uint256,uint256,uint32,uint256)": {
        "details": "given a token supply, connector balance, weight and a sell amount (in the main token), calculates the return for a given conversion (in the connector token) Formula: Return = _connectorBalance * (1 - (1 - _sellAmount / _supply) ^ (1 / (_connectorWeight / 1000000)))",
        "params": {
          "_connectorBalance": "total connector",
          "_connectorWeight": "constant connector Weight, represented in ppm, 1-1000000",
          "_sellAmount": "sell amount, in the token itself",
          "_supply": "token total supply"
        },
        "returns": {
          "_0": "sale return amount"
        }
      }
    },
    "title": "Bancor formula by Bancor",
    "version": 1
  },
  "userdoc": {
    "kind": "user",
    "methods": {},
    "version": 1
  }
}