{
  "contractName": "CurveBondedToken",
  "abi": [
    {
      "inputs": [
        {
          "internalType": "address",
          "name": "tok",
          "type": "address"
        }
      ],
      "stateMutability": "nonpayable",
      "type": "constructor"
    },
    {
      "anonymous": false,
      "inputs": [
        {
          "indexed": true,
          "internalType": "address",
          "name": "owner",
          "type": "address"
        },
        {
          "indexed": true,
          "internalType": "address",
          "name": "spender",
          "type": "address"
        },
        {
          "indexed": false,
          "internalType": "uint256",
          "name": "value",
          "type": "uint256"
        }
      ],
      "name": "Approval",
      "type": "event"
    },
    {
      "anonymous": false,
      "inputs": [
        {
          "indexed": true,
          "internalType": "address",
          "name": "sender",
          "type": "address"
        },
        {
          "indexed": false,
          "internalType": "uint256",
          "name": "amount",
          "type": "uint256"
        },
        {
          "indexed": false,
          "internalType": "uint256",
          "name": "reimbursement",
          "type": "uint256"
        }
      ],
      "name": "CurvedBurn",
      "type": "event"
    },
    {
      "anonymous": false,
      "inputs": [
        {
          "indexed": true,
          "internalType": "address",
          "name": "sender",
          "type": "address"
        },
        {
          "indexed": false,
          "internalType": "uint256",
          "name": "amount",
          "type": "uint256"
        },
        {
          "indexed": false,
          "internalType": "uint256",
          "name": "deposit",
          "type": "uint256"
        }
      ],
      "name": "CurvedMint",
      "type": "event"
    },
    {
      "anonymous": false,
      "inputs": [
        {
          "indexed": true,
          "internalType": "address",
          "name": "previousOwner",
          "type": "address"
        },
        {
          "indexed": true,
          "internalType": "address",
          "name": "newOwner",
          "type": "address"
        }
      ],
      "name": "OwnershipTransferred",
      "type": "event"
    },
    {
      "anonymous": false,
      "inputs": [
        {
          "indexed": true,
          "internalType": "address",
          "name": "from",
          "type": "address"
        },
        {
          "indexed": true,
          "internalType": "address",
          "name": "to",
          "type": "address"
        },
        {
          "indexed": false,
          "internalType": "uint256",
          "name": "value",
          "type": "uint256"
        }
      ],
      "name": "Transfer",
      "type": "event"
    },
    {
      "inputs": [
        {
          "internalType": "address",
          "name": "owner",
          "type": "address"
        },
        {
          "internalType": "address",
          "name": "spender",
          "type": "address"
        }
      ],
      "name": "allowance",
      "outputs": [
        {
          "internalType": "uint256",
          "name": "",
          "type": "uint256"
        }
      ],
      "stateMutability": "view",
      "type": "function"
    },
    {
      "inputs": [
        {
          "internalType": "address",
          "name": "spender",
          "type": "address"
        },
        {
          "internalType": "uint256",
          "name": "amount",
          "type": "uint256"
        }
      ],
      "name": "approve",
      "outputs": [
        {
          "internalType": "bool",
          "name": "",
          "type": "bool"
        }
      ],
      "stateMutability": "nonpayable",
      "type": "function"
    },
    {
      "inputs": [
        {
          "internalType": "address",
          "name": "account",
          "type": "address"
        }
      ],
      "name": "balanceOf",
      "outputs": [
        {
          "internalType": "uint256",
          "name": "",
          "type": "uint256"
        }
      ],
      "stateMutability": "view",
      "type": "function"
    },
    {
      "inputs": [
        {
          "internalType": "uint256",
          "name": "_supply",
          "type": "uint256"
        },
        {
          "internalType": "uint256",
          "name": "_connectorBalance",
          "type": "uint256"
        },
        {
          "internalType": "uint32",
          "name": "_connectorWeight",
          "type": "uint32"
        },
        {
          "internalType": "uint256",
          "name": "_depositAmount",
          "type": "uint256"
        }
      ],
      "name": "calculatePurchaseReturn",
      "outputs": [
        {
          "internalType": "uint256",
          "name": "",
          "type": "uint256"
        }
      ],
      "stateMutability": "view",
      "type": "function"
    },
    {
      "inputs": [
        {
          "internalType": "uint256",
          "name": "_supply",
          "type": "uint256"
        },
        {
          "internalType": "uint256",
          "name": "_connectorBalance",
          "type": "uint256"
        },
        {
          "internalType": "uint32",
          "name": "_connectorWeight",
          "type": "uint32"
        },
        {
          "internalType": "uint256",
          "name": "_sellAmount",
          "type": "uint256"
        }
      ],
      "name": "calculateSaleReturn",
      "outputs": [
        {
          "internalType": "uint256",
          "name": "",
          "type": "uint256"
        }
      ],
      "stateMutability": "view",
      "type": "function"
    },
    {
      "inputs": [],
      "name": "decimals",
      "outputs": [
        {
          "internalType": "uint8",
          "name": "",
          "type": "uint8"
        }
      ],
      "stateMutability": "view",
      "type": "function"
    },
    {
      "inputs": [
        {
          "internalType": "address",
          "name": "spender",
          "type": "address"
        },
        {
          "internalType": "uint256",
          "name": "subtractedValue",
          "type": "uint256"
        }
      ],
      "name": "decreaseAllowance",
      "outputs": [
        {
          "internalType": "bool",
          "name": "",
          "type": "bool"
        }
      ],
      "stateMutability": "nonpayable",
      "type": "function"
    },
    {
      "inputs": [
        {
          "internalType": "address",
          "name": "spender",
          "type": "address"
        },
        {
          "internalType": "uint256",
          "name": "addedValue",
          "type": "uint256"
        }
      ],
      "name": "increaseAllowance",
      "outputs": [
        {
          "internalType": "bool",
          "name": "",
          "type": "bool"
        }
      ],
      "stateMutability": "nonpayable",
      "type": "function"
    },
    {
      "inputs": [],
      "name": "maxGasPrice",
      "outputs": [
        {
          "internalType": "uint256",
          "name": "",
          "type": "uint256"
        }
      ],
      "stateMutability": "view",
      "type": "function"
    },
    {
      "inputs": [],
      "name": "name",
      "outputs": [
        {
          "internalType": "string",
          "name": "",
          "type": "string"
        }
      ],
      "stateMutability": "view",
      "type": "function"
    },
    {
      "inputs": [],
      "name": "owner",
      "outputs": [
        {
          "internalType": "address",
          "name": "",
          "type": "address"
        }
      ],
      "stateMutability": "view",
      "type": "function"
    },
    {
      "inputs": [],
      "name": "poolBalance",
      "outputs": [
        {
          "internalType": "uint256",
          "name": "",
          "type": "uint256"
        }
      ],
      "stateMutability": "view",
      "type": "function"
    },
    {
      "inputs": [],
      "name": "renounceOwnership",
      "outputs": [],
      "stateMutability": "nonpayable",
      "type": "function"
    },
    {
      "inputs": [],
      "name": "reserveRatio",
      "outputs": [
        {
          "internalType": "uint256",
          "name": "",
          "type": "uint256"
        }
      ],
      "stateMutability": "view",
      "type": "function"
    },
    {
      "inputs": [],
      "name": "scale",
      "outputs": [
        {
          "internalType": "uint256",
          "name": "",
          "type": "uint256"
        }
      ],
      "stateMutability": "view",
      "type": "function"
    },
    {
      "inputs": [
        {
          "internalType": "uint256",
          "name": "newMax",
          "type": "uint256"
        }
      ],
      "name": "setMaxGasPrice",
      "outputs": [
        {
          "internalType": "bool",
          "name": "",
          "type": "bool"
        }
      ],
      "stateMutability": "nonpayable",
      "type": "function"
    },
    {
      "inputs": [],
      "name": "symbol",
      "outputs": [
        {
          "internalType": "string",
          "name": "",
          "type": "string"
        }
      ],
      "stateMutability": "view",
      "type": "function"
    },
    {
      "inputs": [],
      "name": "totalSupply",
      "outputs": [
        {
          "internalType": "uint256",
          "name": "",
          "type": "uint256"
        }
      ],
      "stateMutability": "view",
      "type": "function"
    },
    {
      "inputs": [
        {
          "internalType": "address",
          "name": "recipient",
          "type": "address"
        },
        {
          "internalType": "uint256",
          "name": "amount",
          "type": "uint256"
        }
      ],
      "name": "transfer",
      "outputs": [
        {
          "internalType": "bool",
          "name": "",
          "type": "bool"
        }
      ],
      "stateMutability": "nonpayable",
      "type": "function"
    },
    {
      "inputs": [
        {
          "internalType": "address",
          "name": "sender",
          "type": "address"
        },
        {
          "internalType": "address",
          "name": "recipient",
          "type": "address"
        },
        {
          "internalType": "uint256",
          "name": "amount",
          "type": "uint256"
        }
      ],
      "name": "transferFrom",
      "outputs": [
        {
          "internalType": "bool",
          "name": "",
          "type": "bool"
        }
      ],
      "stateMutability": "nonpayable",
      "type": "function"
    },
    {
      "inputs": [
        {
          "internalType": "address",
          "name": "newOwner",
          "type": "address"
        }
      ],
      "name": "transferOwnership",
      "outputs": [],
      "stateMutability": "nonpayable",
      "type": "function"
    },
    {
      "inputs": [
        {
          "internalType": "uint256",
          "name": "_amount",
          "type": "uint256"
        }
      ],
      "name": "calculateCurvedMintReturn",
      "outputs": [
        {
          "internalType": "uint256",
          "name": "mintAmount",
          "type": "uint256"
        }
      ],
      "stateMutability": "view",
      "type": "function"
    },
    {
      "inputs": [
        {
          "internalType": "uint256",
          "name": "_amount",
          "type": "uint256"
        }
      ],
      "name": "calculateCurvedBurnReturn",
      "outputs": [
        {
          "internalType": "uint256",
          "name": "burnAmount",
          "type": "uint256"
        }
      ],
      "stateMutability": "view",
      "type": "function"
    }
  ],
  "bytecode": "0x6080604052670de0b6b3a7640000608155670de0b6b3a764000060875560875460016200002d9190620014d0565b608855620186a06089553480156200004457600080fd5b50604051620040de380380620040de83398181016040528101906200006a91906200159b565b6040518060400160405280600681526020017f4d616865736800000000000000000000000000000000000000000000000000008152506040518060400160405280600281526020017f4d42000000000000000000000000000000000000000000000000000000000000815250701c35fedd14ffffffffffffffffffffffff60006020608081106200010057620000ff620015cd565b5b0181905550701b0ce43b323fffffffffffffffffffffff60006021608081106200012f576200012e620015cd565b5b01819055507019f0028ec1ffffffffffffffffffffffff60006022608081106200015e576200015d620015cd565b5b01819055507018ded91f0e7fffffffffffffffffffffff60006023608081106200018d576200018c620015cd565b5b01819055507017d8ec7f0417ffffffffffffffffffffff6000602460808110620001bc57620001bb620015cd565b5b01819055507016ddc6556cdbffffffffffffffffffffff6000602560808110620001eb57620001ea620015cd565b5b01819055507015ecf52776a1ffffffffffffffffffffff60006026608081106200021a5762000219620015cd565b5b01819055507015060c256cb2ffffffffffffffffffffff6000602760808110620002495762000248620015cd565b5b0181905550701428a2f98d72ffffffffffffffffffffff6000602860808110620002785762000277620015cd565b5b01819055507013545598e5c23fffffffffffffffffffff6000602960808110620002a757620002a6620015cd565b5b0181905550701288c4161ce1dfffffffffffffffffffff6000602a60808110620002d657620002d5620015cd565b5b01819055507011c592761c666fffffffffffffffffffff6000602b60808110620003055762000304620015cd565b5b018190555070110a688680a757ffffffffffffffffffff6000602c60808110620003345762000333620015cd565b5b0181905550701056f1b5bedf77ffffffffffffffffffff6000602d60808110620003635762000362620015cd565b5b0181905550700faadceceeff8bffffffffffffffffffff6000602e60808110620003925762000391620015cd565b5b0181905550700f05dc6b27edadffffffffffffffffffff6000602f60808110620003c157620003c0620015cd565b5b0181905550700e67a5a25da4107fffffffffffffffffff6000603060808110620003f057620003ef620015cd565b5b0181905550700dcff115b14eedffffffffffffffffffff60006031608081106200041f576200041e620015cd565b5b0181905550700d3e7a392431239fffffffffffffffffff60006032608081106200044e576200044d620015cd565b5b0181905550700cb2ff529eb71e4fffffffffffffffffff60006033608081106200047d576200047c620015cd565b5b0181905550700c2d415c3db974afffffffffffffffffff6000603460808110620004ac57620004ab620015cd565b5b0181905550700bad03e7d883f69bffffffffffffffffff6000603560808110620004db57620004da620015cd565b5b0181905550700b320d03b2c343d5ffffffffffffffffff60006036608081106200050a5762000509620015cd565b5b0181905550700abc25204e02828dffffffffffffffffff6000603760808110620005395762000538620015cd565b5b0181905550700a4b16f74ee4bb207fffffffffffffffff6000603860808110620005685762000567620015cd565b5b01819055507009deaf736ac1f569ffffffffffffffffff6000603960808110620005975762000596620015cd565b5b0181905550700976bd9952c7aa957fffffffffffffffff6000603a60808110620005c657620005c5620015cd565b5b01819055507009131271922eaa606fffffffffffffffff6000603b60808110620005f557620005f4620015cd565b5b01819055507008b380f3558668c46fffffffffffffffff6000603c60808110620006245762000623620015cd565b5b0181905550700857ddf0117efa215bffffffffffffffff6000603d60808110620006535762000652620015cd565b5b01819055507007ffffffffffffffffffffffffffffffff6000603e60808110620006825762000681620015cd565b5b01819055507007abbf6f6abb9d087fffffffffffffffff6000603f60808110620006b157620006b0620015cd565b5b018190555070075af62cbac95f7dfa7fffffffffffffff6000604060808110620006e057620006df620015cd565b5b018190555070070d7fb7452e187ac13fffffffffffffff60006041608081106200070f576200070e620015cd565b5b01819055507006c3390ecc8af379295fffffffffffffff60006042608081106200073e576200073d620015cd565b5b018190555070067c00a3b07ffc01fd6fffffffffffffff60006043608081106200076d576200076c620015cd565b5b0181905550700637b647c39cbb9d3d27ffffffffffffff60006044608081106200079c576200079b620015cd565b5b01819055507005f63b1fc104dbd39587ffffffffffffff6000604560808110620007cb57620007ca620015cd565b5b01819055507005b771955b36e12f7235ffffffffffffff6000604660808110620007fa57620007f9620015cd565b5b018190555070057b3d49dda84556d6f6ffffffffffffff6000604760808110620008295762000828620015cd565b5b018190555070054183095b2c8ececf30ffffffffffffff6000604860808110620008585762000857620015cd565b5b018190555070050a28be635ca2b888f77fffffffffffff6000604960808110620008875762000886620015cd565b5b01819055507004d5156639708c9db33c3fffffffffffff6000604a60808110620008b657620008b5620015cd565b5b01819055507004a23105873875bd52dfdfffffffffffff6000604b60808110620008e557620008e4620015cd565b5b0181905550700471649d87199aa990756fffffffffffff6000604c60808110620009145762000913620015cd565b5b01819055507004429a21a029d4c1457cfbffffffffffff6000604d60808110620009435762000942620015cd565b5b0181905550700415bc6d6fb7dd71af2cb3ffffffffffff6000604e60808110620009725762000971620015cd565b5b01819055507003eab73b3bbfe282243ce1ffffffffffff6000604f60808110620009a157620009a0620015cd565b5b01819055507003c1771ac9fb6b4c18e229ffffffffffff6000605060808110620009d057620009cf620015cd565b5b0181905550700399e96897690418f785257fffffffffff6000605160808110620009ff57620009fe620015cd565b5b0181905550700373fc456c53bb779bf0ea9fffffffffff600060526080811062000a2e5762000a2d620015cd565b5b018190555070034f9e8e490c48e67e6ab8bfffffffffff600060536080811062000a5d5762000a5c620015cd565b5b018190555070032cbfd4a7adc790560b3337ffffffffff600060546080811062000a8c5762000a8b620015cd565b5b018190555070030b50570f6e5d2acca94613ffffffffff600060556080811062000abb5762000aba620015cd565b5b01819055507002eb40f9f620fda6b56c2861ffffffffff600060566080811062000aea5762000ae9620015cd565b5b01819055507002cc8340ecb0d0f520a6af58ffffffffff600060576080811062000b195762000b18620015cd565b5b01819055507002af09481380a0a35cf1ba02ffffffffff600060586080811062000b485762000b47620015cd565b5b0181905550700292c5bdd3b92ec810287b1b3fffffffff600060596080811062000b775762000b76620015cd565b5b0181905550700277abdcdab07d5a77ac6d6b9fffffffff6000605a6080811062000ba65762000ba5620015cd565b5b018190555070025daf6654b1eaa55fd64df5efffffffff6000605b6080811062000bd55762000bd4620015cd565b5b0181905550700244c49c648baa98192dce88b7ffffffff6000605c6080811062000c045762000c03620015cd565b5b018190555070022ce03cd5619a311b2471268bffffffff6000605d6080811062000c335762000c32620015cd565b5b0181905550700215f77c045fbe885654a44a0fffffffff6000605e6080811062000c625762000c61620015cd565b5b01819055507001ffffffffffffffffffffffffffffffff6000605f6080811062000c915762000c90620015cd565b5b01819055507001eaefdbdaaee7421fc4d3ede5ffffffff600060606080811062000cc05762000cbf620015cd565b5b01819055507001d6bd8b2eb257df7e8ca57b09bfffffff600060616080811062000cef5762000cee620015cd565b5b01819055507001c35fedd14b861eb0443f7f133fffffff600060626080811062000d1e5762000d1d620015cd565b5b01819055507001b0ce43b322bcde4a56e8ada5afffffff600060636080811062000d4d5762000d4c620015cd565b5b018190555070019f0028ec1fff007f5a195a39dfffffff600060646080811062000d7c5762000d7b620015cd565b5b018190555070018ded91f0e72ee74f49b15ba527ffffff600060656080811062000dab5762000daa620015cd565b5b018190555070017d8ec7f04136f4e5615fd41a63ffffff600060666080811062000dda5762000dd9620015cd565b5b018190555070016ddc6556cdb84bdc8d12d22e6fffffff600060676080811062000e095762000e08620015cd565b5b018190555070015ecf52776a1155b5bd8395814f7fffff600060686080811062000e385762000e37620015cd565b5b018190555070015060c256cb23b3b3cc3754cf40ffffff600060696080811062000e675762000e66620015cd565b5b01819055507001428a2f98d728ae223ddab715be3fffff6000606a6080811062000e965762000e95620015cd565b5b018190555070013545598e5c23276ccf0ede68034fffff6000606b6080811062000ec55762000ec4620015cd565b5b01819055507001288c4161ce1d6f54b7f61081194fffff6000606c6080811062000ef45762000ef3620015cd565b5b018190555070011c592761c666aa641d5a01a40f17ffff6000606d6080811062000f235762000f22620015cd565b5b0181905550700110a688680a7530515f3e6e6cfdcdffff6000606e6080811062000f525762000f51620015cd565b5b01819055507001056f1b5bedf75c6bcb2ce8aed428ffff6000606f6080811062000f815762000f80620015cd565b5b01819055506ffaadceceeff8a0890f3875f008277fff600060706080811062000faf5762000fae620015cd565b5b01819055506ff05dc6b27edad306388a600f6ba0bfff600060716080811062000fdd5762000fdc620015cd565b5b01819055506fe67a5a25da41063de1495d5b18cdbfff60006072608081106200100b576200100a620015cd565b5b01819055506fdcff115b14eedde6fc3aa5353f2e4fff6000607360808110620010395762001038620015cd565b5b01819055506fd3e7a3924312399f9aae2e0f868f8fff6000607460808110620010675762001066620015cd565b5b01819055506fcb2ff529eb71e41582cccd5a1ee26fff6000607560808110620010955762001094620015cd565b5b01819055506fc2d415c3db974ab32a51840c0b67edff6000607660808110620010c357620010c2620015cd565b5b01819055506fbad03e7d883f69ad5b0a186184e06bff6000607760808110620010f157620010f0620015cd565b5b01819055506fb320d03b2c343d4829abd6075f0cc5ff60006078608081106200111f576200111e620015cd565b5b01819055506fabc25204e02828d73c6e80bcdb1a95bf60006079608081106200114d576200114c620015cd565b5b01819055506fa4b16f74ee4bb2040a1ec6c15fbbf2df6000607a608081106200117b576200117a620015cd565b5b01819055506f9deaf736ac1f569deb1b5ae3f36c130f6000607b60808110620011a957620011a8620015cd565b5b01819055506f976bd9952c7aa957f5937d790ef650376000607c60808110620011d757620011d6620015cd565b5b01819055506f9131271922eaa6064b73a22d0bd4f2bf6000607d60808110620012055762001204620015cd565b5b01819055506f8b380f3558668c46c91c49a2f8e967b96000607e60808110620012335762001232620015cd565b5b01819055506f857ddf0117efa215952912839f6473e66000607f60808110620012615762001260620015cd565b5b0181905550620012866200127a6200131960201b60201c565b6200132160201b60201c565b81608590805190602001906200129e929190620013e7565b508060869080519060200190620012b7929190620013e7565b505050608754600a620012cb9190620014d0565b608a8190555080608b60006101000a81548173ffffffffffffffffffffffffffffffffffffffff021916908373ffffffffffffffffffffffffffffffffffffffff1602179055505062001661565b600033905090565b6000608060009054906101000a900473ffffffffffffffffffffffffffffffffffffffff16905081608060006101000a81548173ffffffffffffffffffffffffffffffffffffffff021916908373ffffffffffffffffffffffffffffffffffffffff1602179055508173ffffffffffffffffffffffffffffffffffffffff168173ffffffffffffffffffffffffffffffffffffffff167f8be0079c531659141344cd1fd0a4f28419497f9722a3daafe3b4186f6b6457e060405160405180910390a35050565b828054620013f5906200162b565b90600052602060002090601f01602090048101928262001419576000855562001465565b82601f106200143457805160ff191683800117855562001465565b8280016001018555821562001465579182015b828111156200146457825182559160200191906001019062001447565b5b50905062001474919062001478565b5090565b5b808211156200149357600081600090555060010162001479565b5090565b6000819050919050565b7f4e487b7100000000000000000000000000000000000000000000000000000000600052601160045260246000fd5b6000620014dd8262001497565b9150620014ea8362001497565b9250817fffffffffffffffffffffffffffffffffffffffffffffffffffffffffffffffff0483118215151615620015265762001525620014a1565b5b828202905092915050565b600080fd5b600073ffffffffffffffffffffffffffffffffffffffff82169050919050565b6000620015638262001536565b9050919050565b620015758162001556565b81146200158157600080fd5b50565b60008151905062001595816200156a565b92915050565b600060208284031215620015b457620015b362001531565b5b6000620015c48482850162001584565b91505092915050565b7f4e487b7100000000000000000000000000000000000000000000000000000000600052603260045260246000fd5b7f4e487b7100000000000000000000000000000000000000000000000000000000600052602260045260246000fd5b600060028204905060018216806200164457607f821691505b602082108114156200165b576200165a620015fc565b5b50919050565b612a6d80620016716000396000f3fe608060405234801561001057600080fd5b506004361061014d5760003560e01c806370a08231116100c3578063a457c2d71161007c578063a457c2d7146103cc578063a9059cbb146103fc578063d2fa635e1461042c578063dd62ed3e1461045c578063f2fde38b1461048c578063f51e181a146104a85761014d565b806370a0823114610308578063715018a6146103385780638da5cb5b1461034257806395d89b411461036057806396365d441461037e5780639a4f318b1461039c5761014d565b806329a00e7c1161011557806329a00e7c1461020c578063313ce5671461023c578063395093511461025a5780633de39c111461028a57806349f9b0f7146102a85780636d6f1e01146102d85761014d565b806306fdde0314610152578063095ea7b3146101705780630c7d5cd8146101a057806318160ddd146101be57806323b872dd146101dc575b600080fd5b61015a6104c6565b6040516101679190611ef7565b60405180910390f35b61018a60048036038101906101859190611fb2565b610558565b604051610197919061200d565b60405180910390f35b6101a8610576565b6040516101b59190612037565b60405180910390f35b6101c661057c565b6040516101d39190612037565b60405180910390f35b6101f660048036038101906101f19190612052565b610586565b604051610203919061200d565b60405180910390f35b610226600480360381019061022191906120e1565b61067e565b6040516102339190612037565b60405180910390f35b610244610783565b6040516102519190612164565b60405180910390f35b610274600480360381019061026f9190611fb2565b61078c565b604051610281919061200d565b60405180910390f35b610292610838565b60405161029f9190612037565b60405180910390f35b6102c260048036038101906102bd91906120e1565b61083e565b6040516102cf9190612037565b60405180910390f35b6102f260048036038101906102ed919061217f565b610977565b6040516102ff9190612037565b60405180910390f35b610322600480360381019061031d91906121ac565b610997565b60405161032f9190612037565b60405180910390f35b6103406109e0565b005b61034a610a68565b60405161035791906121e8565b60405180910390f35b610368610a92565b6040516103759190611ef7565b60405180910390f35b610386610b24565b6040516103939190612037565b60405180910390f35b6103b660048036038101906103b1919061217f565b610b2a565b6040516103c39190612037565b60405180910390f35b6103e660048036038101906103e19190611fb2565b610b4a565b6040516103f3919061200d565b60405180910390f35b61041660048036038101906104119190611fb2565b610c35565b604051610423919061200d565b60405180910390f35b6104466004803603810190610441919061217f565b610c53565b604051610453919061200d565b60405180910390f35b61047660048036038101906104719190612203565b610ce1565b6040516104839190612037565b60405180910390f35b6104a660048036038101906104a191906121ac565b610d68565b005b6104b0610e60565b6040516104bd9190612037565b60405180910390f35b6060608580546104d590612272565b80601f016020809104026020016040519081016040528092919081815260200182805461050190612272565b801561054e5780601f106105235761010080835404028352916020019161054e565b820191906000526020600020905b81548152906001019060200180831161053157829003601f168201915b5050505050905090565b600061056c610565610e66565b8484610e6e565b6001905092915050565b60895481565b6000608454905090565b6000610593848484611039565b6000608360008673ffffffffffffffffffffffffffffffffffffffff1673ffffffffffffffffffffffffffffffffffffffff16815260200190815260200160002060006105de610e66565b73ffffffffffffffffffffffffffffffffffffffff1673ffffffffffffffffffffffffffffffffffffffff1681526020019081526020016000205490508281101561065e576040517f08c379a000000000000000000000000000000000000000000000000000000000815260040161065590612316565b60405180910390fd5b6106728561066a610e66565b858403610e6e565b60019150509392505050565b6000808511801561068f5750600084115b80156106a1575060008363ffffffff16115b80156106bc5750620f424063ffffffff168363ffffffff1611155b6106c557600080fd5b60008214156106d7576000905061077b565b620f424063ffffffff168363ffffffff16141561071a576107138461070584886112bd90919063ffffffff16565b6112d390919063ffffffff16565b905061077b565b600080600061073287866112e990919063ffffffff16565b9050610743818888620f42406112ff565b809350819450505060008260ff16610764858b6112bd90919063ffffffff16565b901c905088816107749190612365565b9450505050505b949350505050565b60006012905090565b600061082e610799610e66565b8484608360006107a7610e66565b73ffffffffffffffffffffffffffffffffffffffff1673ffffffffffffffffffffffffffffffffffffffff16815260200190815260200160002060008873ffffffffffffffffffffffffffffffffffffffff1673ffffffffffffffffffffffffffffffffffffffff168152602001908152602001600020546108299190612399565b610e6e565b6001905092915050565b60815481565b6000808511801561084f5750600084115b8015610861575060008363ffffffff16115b801561087c5750620f424063ffffffff168363ffffffff1611155b80156108885750848211155b61089157600080fd5b60008214156108a3576000905061096f565b848214156108b35783905061096f565b620f424063ffffffff168363ffffffff1614156108f6576108ef856108e184876112bd90919063ffffffff16565b6112d390919063ffffffff16565b905061096f565b600080600084886109079190612365565b90506109188882620f4240896112ff565b8093508194505050600061093584896112bd90919063ffffffff16565b905060008360ff1689901b905061096785610959838561136b90919063ffffffff16565b6112d390919063ffffffff16565b955050505050505b949350505050565b600061099061098461057c565b6088546089548561083e565b9050919050565b6000608260008373ffffffffffffffffffffffffffffffffffffffff1673ffffffffffffffffffffffffffffffffffffffff168152602001908152602001600020549050919050565b6109e8610e66565b73ffffffffffffffffffffffffffffffffffffffff16610a06610a68565b73ffffffffffffffffffffffffffffffffffffffff1614610a5c576040517f08c379a0000000000000000000000000000000000000000000000000000000008152600401610a539061243b565b60405180910390fd5b610a666000611381565b565b6000608060009054906101000a900473ffffffffffffffffffffffffffffffffffffffff16905090565b606060868054610aa190612272565b80601f0160208091040260200160405190810160405280929190818152602001828054610acd90612272565b8015610b1a5780601f10610aef57610100808354040283529160200191610b1a565b820191906000526020600020905b815481529060010190602001808311610afd57829003601f168201915b5050505050905090565b60885481565b6000610b43610b3761057c565b6088546089548561067e565b9050919050565b60008060836000610b59610e66565b73ffffffffffffffffffffffffffffffffffffffff1673ffffffffffffffffffffffffffffffffffffffff16815260200190815260200160002060008573ffffffffffffffffffffffffffffffffffffffff1673ffffffffffffffffffffffffffffffffffffffff16815260200190815260200160002054905082811015610c16576040517f08c379a0000000000000000000000000000000000000000000000000000000008152600401610c0d906124cd565b60405180910390fd5b610c2a610c21610e66565b85858403610e6e565b600191505092915050565b6000610c49610c42610e66565b8484611039565b6001905092915050565b6000610c5d610e66565b73ffffffffffffffffffffffffffffffffffffffff16610c7b610a68565b73ffffffffffffffffffffffffffffffffffffffff1614610cd1576040517f08c379a0000000000000000000000000000000000000000000000000000000008152600401610cc89061243b565b60405180910390fd5b8160818190555060019050919050565b6000608360008473ffffffffffffffffffffffffffffffffffffffff1673ffffffffffffffffffffffffffffffffffffffff16815260200190815260200160002060008373ffffffffffffffffffffffffffffffffffffffff1673ffffffffffffffffffffffffffffffffffffffff16815260200190815260200160002054905092915050565b610d70610e66565b73ffffffffffffffffffffffffffffffffffffffff16610d8e610a68565b73ffffffffffffffffffffffffffffffffffffffff1614610de4576040517f08c379a0000000000000000000000000000000000000000000000000000000008152600401610ddb9061243b565b60405180910390fd5b600073ffffffffffffffffffffffffffffffffffffffff168173ffffffffffffffffffffffffffffffffffffffff161415610e54576040517f08c379a0000000000000000000000000000000000000000000000000000000008152600401610e4b9061255f565b60405180910390fd5b610e5d81611381565b50565b60875481565b600033905090565b600073ffffffffffffffffffffffffffffffffffffffff168373ffffffffffffffffffffffffffffffffffffffff161415610ede576040517f08c379a0000000000000000000000000000000000000000000000000000000008152600401610ed5906125f1565b60405180910390fd5b600073ffffffffffffffffffffffffffffffffffffffff168273ffffffffffffffffffffffffffffffffffffffff161415610f4e576040517f08c379a0000000000000000000000000000000000000000000000000000000008152600401610f4590612683565b60405180910390fd5b80608360008573ffffffffffffffffffffffffffffffffffffffff1673ffffffffffffffffffffffffffffffffffffffff16815260200190815260200160002060008473ffffffffffffffffffffffffffffffffffffffff1673ffffffffffffffffffffffffffffffffffffffff168152602001908152602001600020819055508173ffffffffffffffffffffffffffffffffffffffff168373ffffffffffffffffffffffffffffffffffffffff167f8c5be1e5ebec7d5bd14f71427d1e84f3dd0314c0f7b2291e5b200ac8c7c3b9258360405161102c9190612037565b60405180910390a3505050565b600073ffffffffffffffffffffffffffffffffffffffff168373ffffffffffffffffffffffffffffffffffffffff1614156110a9576040517f08c379a00000000000000000000000000000000000000000000000000000000081526004016110a090612715565b60405180910390fd5b600073ffffffffffffffffffffffffffffffffffffffff168273ffffffffffffffffffffffffffffffffffffffff161415611119576040517f08c379a0000000000000000000000000000000000000000000000000000000008152600401611110906127a7565b60405180910390fd5b611124838383611447565b6000608260008573ffffffffffffffffffffffffffffffffffffffff1673ffffffffffffffffffffffffffffffffffffffff168152602001908152602001600020549050818110156111ab576040517f08c379a00000000000000000000000000000000000000000000000000000000081526004016111a290612839565b60405180910390fd5b818103608260008673ffffffffffffffffffffffffffffffffffffffff1673ffffffffffffffffffffffffffffffffffffffff1681526020019081526020016000208190555081608260008573ffffffffffffffffffffffffffffffffffffffff1673ffffffffffffffffffffffffffffffffffffffff16815260200190815260200160002060008282546112409190612399565b925050819055508273ffffffffffffffffffffffffffffffffffffffff168473ffffffffffffffffffffffffffffffffffffffff167fddf252ad1be2c89b69c2b068fc378daa952ba7f163c4a11628f55a4df523b3ef846040516112a49190612037565b60405180910390a36112b784848461144c565b50505050565b600081836112cb9190612859565b905092915050565b600081836112e191906128e2565b905092915050565b600081836112f79190612399565b905092915050565b60008060008363ffffffff168563ffffffff1661131c8989611451565b6113269190612859565b61133091906128e2565b9050600061133d826115e2565b905061135b81607f61134f9190612913565b60ff1683901c826116c4565b8193509350505094509492505050565b600081836113799190612365565b905092915050565b6000608060009054906101000a900473ffffffffffffffffffffffffffffffffffffffff16905081608060006101000a81548173ffffffffffffffffffffffffffffffffffffffff021916908373ffffffffffffffffffffffffffffffffffffffff1602179055508173ffffffffffffffffffffffffffffffffffffffff168173ffffffffffffffffffffffffffffffffffffffff167f8be0079c531659141344cd1fd0a4f28419497f9722a3daafe3b4186f6b6457e060405160405180910390a35050565b505050565b505050565b60007001ffffffffffffffffffffffffffffffff83111561147557611474612947565b5b600080836f80000000000000000000000000000000866114959190612859565b61149f91906128e2565b9050700100000000000000000000000000000000811061150d5760006114df6f80000000000000000000000000000000836114da91906128e2565b611dd3565b90508060ff1682901c91506f800000000000000000000000000000008160ff166115099190612859565b9250505b6f800000000000000000000000000000008111156115b5576000607f90505b60008160ff1611156115b3576f8000000000000000000000000000000082836115559190612859565b61155f91906128e2565b915070010000000000000000000000000000000082106115a257600182901c915060018161158d9190612913565b60ff166001901b8361159f9190612399565b92505b806115ac90612976565b905061152c565b505b607a60ff166f02c5c85fdf473de6af278ece600fcbda836115d69190612859565b901c9250505092915050565b600080602090506000607f90505b8060ff1660018361160191906129a0565b60ff1610156116575760006002828461161a91906129a0565b61162491906129d7565b90508460008260ff166080811061163e5761163d612a08565b5b01541061164d57809250611651565b8091505b506115f0565b8360008260ff166080811061166f5761166e612a08565b5b0154106116805780925050506116bf565b8360008360ff166080811061169857611697612a08565b5b0154106116a95781925050506116bf565b60006116b8576116b7612947565b5b6000925050505b919050565b60008083905060008360ff1685836116dc9190612859565b901c91506f03442c4e6074a82f1797f72ac0000000826116fc9190612859565b816117079190612399565b90508360ff1685836117199190612859565b901c91506f0116b96f757c380fb287fd0e40000000826117399190612859565b816117449190612399565b90508360ff1685836117569190612859565b901c91506e45ae5bdd5f0e03eca1ff4390000000826117759190612859565b816117809190612399565b90508360ff1685836117929190612859565b901c91506e0defabf91302cd95b9ffda50000000826117b19190612859565b816117bc9190612399565b90508360ff1685836117ce9190612859565b901c91506e02529ca9832b22439efff9b8000000826117ed9190612859565b816117f89190612399565b90508360ff16858361180a9190612859565b901c91506d54f1cf12bd04e516b6da88000000826118289190612859565b816118339190612399565b90508360ff1685836118459190612859565b901c91506d0a9e39e257a09ca2d6db51000000826118639190612859565b8161186e9190612399565b90508360ff1685836118809190612859565b901c91506d012e066e7b839fa050c3090000008261189e9190612859565b816118a99190612399565b90508360ff1685836118bb9190612859565b901c91506c1e33d7d926c329a1ad1a800000826118d89190612859565b816118e39190612399565b90508360ff1685836118f59190612859565b901c91506c02bee513bdb4a6b19b5f800000826119129190612859565b8161191d9190612399565b90508360ff16858361192f9190612859565b901c91506b3a9316fa79b88eccf2a000008261194b9190612859565b816119569190612399565b90508360ff1685836119689190612859565b901c91506b048177ebe1fa812375200000826119849190612859565b8161198f9190612399565b90508360ff1685836119a19190612859565b901c91506a5263fe90242dcbacf00000826119bc9190612859565b816119c79190612399565b90508360ff1685836119d99190612859565b901c91506a057e22099c030d94100000826119f49190612859565b816119ff9190612399565b90508360ff168583611a119190612859565b901c91506957e22099c030d941000082611a2b9190612859565b81611a369190612399565b90508360ff168583611a489190612859565b901c915069052b6b5456997631000082611a629190612859565b81611a6d9190612399565b90508360ff168583611a7f9190612859565b901c9150684985f67696bf74800082611a989190612859565b81611aa39190612399565b90508360ff168583611ab59190612859565b901c91506803dea12ea99e49800082611ace9190612859565b81611ad99190612399565b90508360ff168583611aeb9190612859565b901c91506731880f2214b6e00082611b039190612859565b81611b0e9190612399565b90508360ff168583611b209190612859565b901c915067025bcff56eb3600082611b389190612859565b81611b439190612399565b90508360ff168583611b559190612859565b901c9150661b722e10ab100082611b6c9190612859565b81611b779190612399565b90508360ff168583611b899190612859565b901c91506601317c7007700082611ba09190612859565b81611bab9190612399565b90508360ff168583611bbd9190612859565b901c9150650cba84aafa0082611bd39190612859565b81611bde9190612399565b90508360ff168583611bf09190612859565b901c91506482573a0a0082611c059190612859565b81611c109190612399565b90508360ff168583611c229190612859565b901c91506405035ad90082611c379190612859565b81611c429190612399565b90508360ff168583611c549190612859565b901c9150632f881b0082611c689190612859565b81611c739190612399565b90508360ff168583611c859190612859565b901c91506301b2934082611c999190612859565b81611ca49190612399565b90508360ff168583611cb69190612859565b901c9150620efc4082611cc99190612859565b81611cd49190612399565b90508360ff168583611ce69190612859565b901c9150617fe082611cf89190612859565b81611d039190612399565b90508360ff168583611d159190612859565b901c915061042082611d279190612859565b81611d329190612399565b90508360ff168583611d449190612859565b901c9150602182611d559190612859565b81611d609190612399565b90508360ff168583611d729190612859565b901c9150600182611d839190612859565b81611d8e9190612399565b90508360ff166001901b856f0688589cc0e9505e2f2fee558000000083611db591906128e2565b611dbf9190612399565b611dc99190612399565b9250505092915050565b600080600090506000839050610100811015611e13575b6001811115611e0e57600181901c9050600182611e0791906129a0565b9150611dea565b611e54565b6000608090505b60008160ff161115611e52578060ff166001901b8210611e43578060ff1682901c915080831792505b60018160ff16901c9050611e1a565b505b8192505050919050565b600081519050919050565b600082825260208201905092915050565b60005b83811015611e98578082015181840152602081019050611e7d565b83811115611ea7576000848401525b50505050565b6000601f19601f8301169050919050565b6000611ec982611e5e565b611ed38185611e69565b9350611ee3818560208601611e7a565b611eec81611ead565b840191505092915050565b60006020820190508181036000830152611f118184611ebe565b905092915050565b600080fd5b600073ffffffffffffffffffffffffffffffffffffffff82169050919050565b6000611f4982611f1e565b9050919050565b611f5981611f3e565b8114611f6457600080fd5b50565b600081359050611f7681611f50565b92915050565b6000819050919050565b611f8f81611f7c565b8114611f9a57600080fd5b50565b600081359050611fac81611f86565b92915050565b60008060408385031215611fc957611fc8611f19565b5b6000611fd785828601611f67565b9250506020611fe885828601611f9d565b9150509250929050565b60008115159050919050565b61200781611ff2565b82525050565b60006020820190506120226000830184611ffe565b92915050565b61203181611f7c565b82525050565b600060208201905061204c6000830184612028565b92915050565b60008060006060848603121561206b5761206a611f19565b5b600061207986828701611f67565b935050602061208a86828701611f67565b925050604061209b86828701611f9d565b9150509250925092565b600063ffffffff82169050919050565b6120be816120a5565b81146120c957600080fd5b50565b6000813590506120db816120b5565b92915050565b600080600080608085870312156120fb576120fa611f19565b5b600061210987828801611f9d565b945050602061211a87828801611f9d565b935050604061212b878288016120cc565b925050606061213c87828801611f9d565b91505092959194509250565b600060ff82169050919050565b61215e81612148565b82525050565b60006020820190506121796000830184612155565b92915050565b60006020828403121561219557612194611f19565b5b60006121a384828501611f9d565b91505092915050565b6000602082840312156121c2576121c1611f19565b5b60006121d084828501611f67565b91505092915050565b6121e281611f3e565b82525050565b60006020820190506121fd60008301846121d9565b92915050565b6000806040838503121561221a57612219611f19565b5b600061222885828601611f67565b925050602061223985828601611f67565b9150509250929050565b7f4e487b7100000000000000000000000000000000000000000000000000000000600052602260045260246000fd5b6000600282049050600182168061228a57607f821691505b6020821081141561229e5761229d612243565b5b50919050565b7f45524332303a207472616e7366657220616d6f756e742065786365656473206160008201527f6c6c6f77616e6365000000000000000000000000000000000000000000000000602082015250565b6000612300602883611e69565b915061230b826122a4565b604082019050919050565b6000602082019050818103600083015261232f816122f3565b9050919050565b7f4e487b7100000000000000000000000000000000000000000000000000000000600052601160045260246000fd5b600061237082611f7c565b915061237b83611f7c565b92508282101561238e5761238d612336565b5b828203905092915050565b60006123a482611f7c565b91506123af83611f7c565b9250827fffffffffffffffffffffffffffffffffffffffffffffffffffffffffffffffff038211156123e4576123e3612336565b5b828201905092915050565b7f4f776e61626c653a2063616c6c6572206973206e6f7420746865206f776e6572600082015250565b6000612425602083611e69565b9150612430826123ef565b602082019050919050565b6000602082019050818103600083015261245481612418565b9050919050565b7f45524332303a2064656372656173656420616c6c6f77616e63652062656c6f7760008201527f207a65726f000000000000000000000000000000000000000000000000000000602082015250565b60006124b7602583611e69565b91506124c28261245b565b604082019050919050565b600060208201905081810360008301526124e6816124aa565b9050919050565b7f4f776e61626c653a206e6577206f776e657220697320746865207a65726f206160008201527f6464726573730000000000000000000000000000000000000000000000000000602082015250565b6000612549602683611e69565b9150612554826124ed565b604082019050919050565b600060208201905081810360008301526125788161253c565b9050919050565b7f45524332303a20617070726f76652066726f6d20746865207a65726f2061646460008201527f7265737300000000000000000000000000000000000000000000000000000000602082015250565b60006125db602483611e69565b91506125e68261257f565b604082019050919050565b6000602082019050818103600083015261260a816125ce565b9050919050565b7f45524332303a20617070726f766520746f20746865207a65726f20616464726560008201527f7373000000000000000000000000000000000000000000000000000000000000602082015250565b600061266d602283611e69565b915061267882612611565b604082019050919050565b6000602082019050818103600083015261269c81612660565b9050919050565b7f45524332303a207472616e736665722066726f6d20746865207a65726f20616460008201527f6472657373000000000000000000000000000000000000000000000000000000602082015250565b60006126ff602583611e69565b915061270a826126a3565b604082019050919050565b6000602082019050818103600083015261272e816126f2565b9050919050565b7f45524332303a207472616e7366657220746f20746865207a65726f206164647260008201527f6573730000000000000000000000000000000000000000000000000000000000602082015250565b6000612791602383611e69565b915061279c82612735565b604082019050919050565b600060208201905081810360008301526127c081612784565b9050919050565b7f45524332303a207472616e7366657220616d6f756e742065786365656473206260008201527f616c616e63650000000000000000000000000000000000000000000000000000602082015250565b6000612823602683611e69565b915061282e826127c7565b604082019050919050565b6000602082019050818103600083015261285281612816565b9050919050565b600061286482611f7c565b915061286f83611f7c565b9250817fffffffffffffffffffffffffffffffffffffffffffffffffffffffffffffffff04831182151516156128a8576128a7612336565b5b828202905092915050565b7f4e487b7100000000000000000000000000000000000000000000000000000000600052601260045260246000fd5b60006128ed82611f7c565b91506128f883611f7c565b925082612908576129076128b3565b5b828204905092915050565b600061291e82612148565b915061292983612148565b92508282101561293c5761293b612336565b5b828203905092915050565b7f4e487b7100000000000000000000000000000000000000000000000000000000600052600160045260246000fd5b600061298182612148565b9150600082141561299557612994612336565b5b600182039050919050565b60006129ab82612148565b91506129b683612148565b92508260ff038211156129cc576129cb612336565b5b828201905092915050565b60006129e282612148565b91506129ed83612148565b9250826129fd576129fc6128b3565b5b828204905092915050565b7f4e487b7100000000000000000000000000000000000000000000000000000000600052603260045260246000fdfea2646970667358221220ecd1ae3233ffbd427bebaaf693a4e014d9655e68c93507f66eeb00f4cf9cfe8464736f6c634300080a0033",
  "immutableReferences": {},
  "source": "pragma solidity ^0.8.10;\n\n\nimport \"openzeppelin-solidity/contracts/token/ERC20/ERC20.sol\";\nimport \"openzeppelin-solidity/contracts/access/Ownable.sol\";\nimport \"openzeppelin-solidity/contracts/utils/math/SafeMath.sol\";\n\nimport \"./Interface/IBondingCurve.sol\";\nimport \"./BancorFormula.sol\";\nimport \"./MaxGasPrice.sol\";\n\ncontract CurveBondedToken is IBondingCurve, BancorFormula, Ownable, MaxGasPrice, ERC20 {\n    using SafeMath for uint256;\n\n    // Use the same decimal places as ether.\n    uint256 public scale = 10**18;\n    uint256 public poolBalance = 1*scale;\n    uint256 public reserveRatio= 100000;\n   \n    uint256 _totalSupply;\nERC20 token;\n    constructor( address tok )  ERC20(\"Mahesh\",\"MB\") {\n        _totalSupply=10*scale;\n        token=ERC20(tok);\n    }\n\n    function calculateCurvedMintReturn(uint256 _amount)\n        public view returns (uint256 mintAmount)\n    {\n        return calculatePurchaseReturn(totalSupply(), poolBalance, uint32(reserveRatio), _amount);\n    }\n\n    function calculateCurvedBurnReturn(uint256 _amount)\n        public view returns (uint256 burnAmount)\n    {\n        return calculateSaleReturn(totalSupply(), poolBalance, uint32(reserveRatio), _amount);\n    }\n\n    modifier validMint(uint256 _amount) {\n        require(_amount > 0, \"Amount must be non-zero!\");\n        _;\n    }\n\n    modifier validBurn(uint256 _amount) {\n        require(_amount > 0, \"Amount must be non-zero!\");\n        require(balanceOf(msg.sender) >= _amount, \"Sender does not have enough tokens to burn.\");\n        _;\n    }\n\n    function _curvedMint(uint256 _deposit) \n        validGasPrice\n        validMint(_deposit)\n        internal returns (bool)\n    {\n            uint256 allowance = token.allowance(msg.sender, address(this));\n    require(allowance >= _deposit, \"Check the token allowance\");\n    token.transferFrom(msg.sender, address(this), _deposit);\n        uint256 amount = calculateCurvedMintReturn(_deposit);\n        _mint(msg.sender, amount);\n        poolBalance = poolBalance.add(_deposit);\n        emit CurvedMint(msg.sender, amount, _deposit);\n        return true;\n    }\n\n    function _curvedBurn(uint256 _amount)\n        validGasPrice\n        validBurn(_amount)\n        internal returns (bool)\n    {\n        uint256 reimbursement = calculateCurvedBurnReturn(_amount);\n        poolBalance = poolBalance.sub(reimbursement);\n        _burn(msg.sender, _amount);\n        token.transfer(msg.sender, reimbursement);\n        emit CurvedBurn(msg.sender, _amount, reimbursement);\n        return true;\n    }\n}\n",
  "sourcePath": "C:\\Users\\Vamsi\\demi\\contracts\\CurveBondedToken.sol",
  "compiler": {
    "name": "solc",
    "version": "0.8.10+commit.fc410830.Emscripten.clang"
  },
  "schemaVersion": "3.4.4",
  "updatedAt": "2022-01-21T18:02:19.762Z",
  "devdoc": {
    "kind": "dev",
    "methods": {
      "allowance(address,address)": {
        "details": "See {IERC20-allowance}."
      },
      "approve(address,uint256)": {
        "details": "See {IERC20-approve}. Requirements: - `spender` cannot be the zero address."
      },
      "balanceOf(address)": {
        "details": "See {IERC20-balanceOf}."
      },
      "calculatePurchaseReturn(uint256,uint256,uint32,uint256)": {
        "details": "given a token supply, connector balance, weight and a deposit amount (in the connector token), calculates the return for a given conversion (in the main token) Formula: Return = _supply * ((1 + _depositAmount / _connectorBalance) ^ (_connectorWeight / 1000000) - 1)",
        "params": {
          "_connectorBalance": "total connector balance",
          "_connectorWeight": "connector weight, represented in ppm, 1-1000000",
          "_depositAmount": "deposit amount, in connector token",
          "_supply": "token total supply"
        },
        "returns": {
          "_0": "purchase return amount"
        }
      },
      "calculateSaleReturn(uint256,uint256,uint32,uint256)": {
        "details": "given a token supply, connector balance, weight and a sell amount (in the main token), calculates the return for a given conversion (in the connector token) Formula: Return = _connectorBalance * (1 - (1 - _sellAmount / _supply) ^ (1 / (_connectorWeight / 1000000)))",
        "params": {
          "_connectorBalance": "total connector",
          "_connectorWeight": "constant connector Weight, represented in ppm, 1-1000000",
          "_sellAmount": "sell amount, in the token itself",
          "_supply": "token total supply"
        },
        "returns": {
          "_0": "sale return amount"
        }
      },
      "decimals()": {
        "details": "Returns the number of decimals used to get its user representation. For example, if `decimals` equals `2`, a balance of `505` tokens should be displayed to a user as `5.05` (`505 / 10 ** 2`). Tokens usually opt for a value of 18, imitating the relationship between Ether and Wei. This is the value {ERC20} uses, unless this function is overridden; NOTE: This information is only used for _display_ purposes: it in no way affects any of the arithmetic of the contract, including {IERC20-balanceOf} and {IERC20-transfer}."
      },
      "decreaseAllowance(address,uint256)": {
        "details": "Atomically decreases the allowance granted to `spender` by the caller. This is an alternative to {approve} that can be used as a mitigation for problems described in {IERC20-approve}. Emits an {Approval} event indicating the updated allowance. Requirements: - `spender` cannot be the zero address. - `spender` must have allowance for the caller of at least `subtractedValue`."
      },
      "increaseAllowance(address,uint256)": {
        "details": "Atomically increases the allowance granted to `spender` by the caller. This is an alternative to {approve} that can be used as a mitigation for problems described in {IERC20-approve}. Emits an {Approval} event indicating the updated allowance. Requirements: - `spender` cannot be the zero address."
      },
      "name()": {
        "details": "Returns the name of the token."
      },
      "owner()": {
        "details": "Returns the address of the current owner."
      },
      "renounceOwnership()": {
        "details": "Leaves the contract without owner. It will not be possible to call `onlyOwner` functions anymore. Can only be called by the current owner. NOTE: Renouncing ownership will leave the contract without an owner, thereby removing any functionality that is only available to the owner."
      },
      "symbol()": {
        "details": "Returns the symbol of the token, usually a shorter version of the name."
      },
      "totalSupply()": {
        "details": "See {IERC20-totalSupply}."
      },
      "transfer(address,uint256)": {
        "details": "See {IERC20-transfer}. Requirements: - `recipient` cannot be the zero address. - the caller must have a balance of at least `amount`."
      },
      "transferFrom(address,address,uint256)": {
        "details": "See {IERC20-transferFrom}. Emits an {Approval} event indicating the updated allowance. This is not required by the EIP. See the note at the beginning of {ERC20}. Requirements: - `sender` and `recipient` cannot be the zero address. - `sender` must have a balance of at least `amount`. - the caller must have allowance for ``sender``'s tokens of at least `amount`."
      },
      "transferOwnership(address)": {
        "details": "Transfers ownership of the contract to a new account (`newOwner`). Can only be called by the current owner."
      }
    },
    "version": 1
  },
  "userdoc": {
    "kind": "user",
    "methods": {},
    "version": 1
  }
}