{
  "contractName": "CurveBondedToken",
  "abi": [
    {
      "inputs": [
        {
          "internalType": "string",
          "name": "name",
          "type": "string"
        },
        {
          "internalType": "string",
          "name": "symbol",
          "type": "string"
        },
        {
          "internalType": "address",
          "name": "tok",
          "type": "address"
        }
      ],
      "stateMutability": "nonpayable",
      "type": "constructor"
    },
    {
      "anonymous": false,
      "inputs": [
        {
          "indexed": true,
          "internalType": "address",
          "name": "owner",
          "type": "address"
        },
        {
          "indexed": true,
          "internalType": "address",
          "name": "spender",
          "type": "address"
        },
        {
          "indexed": false,
          "internalType": "uint256",
          "name": "value",
          "type": "uint256"
        }
      ],
      "name": "Approval",
      "type": "event"
    },
    {
      "anonymous": false,
      "inputs": [
        {
          "indexed": true,
          "internalType": "address",
          "name": "sender",
          "type": "address"
        },
        {
          "indexed": false,
          "internalType": "uint256",
          "name": "amount",
          "type": "uint256"
        },
        {
          "indexed": false,
          "internalType": "uint256",
          "name": "reimbursement",
          "type": "uint256"
        }
      ],
      "name": "CurvedBurn",
      "type": "event"
    },
    {
      "anonymous": false,
      "inputs": [
        {
          "indexed": true,
          "internalType": "address",
          "name": "sender",
          "type": "address"
        },
        {
          "indexed": false,
          "internalType": "uint256",
          "name": "amount",
          "type": "uint256"
        },
        {
          "indexed": false,
          "internalType": "uint256",
          "name": "deposit",
          "type": "uint256"
        }
      ],
      "name": "CurvedMint",
      "type": "event"
    },
    {
      "anonymous": false,
      "inputs": [
        {
          "indexed": true,
          "internalType": "address",
          "name": "previousOwner",
          "type": "address"
        },
        {
          "indexed": true,
          "internalType": "address",
          "name": "newOwner",
          "type": "address"
        }
      ],
      "name": "OwnershipTransferred",
      "type": "event"
    },
    {
      "anonymous": false,
      "inputs": [
        {
          "indexed": true,
          "internalType": "address",
          "name": "from",
          "type": "address"
        },
        {
          "indexed": true,
          "internalType": "address",
          "name": "to",
          "type": "address"
        },
        {
          "indexed": false,
          "internalType": "uint256",
          "name": "value",
          "type": "uint256"
        }
      ],
      "name": "Transfer",
      "type": "event"
    },
    {
      "inputs": [
        {
          "internalType": "address",
          "name": "owner",
          "type": "address"
        },
        {
          "internalType": "address",
          "name": "spender",
          "type": "address"
        }
      ],
      "name": "allowance",
      "outputs": [
        {
          "internalType": "uint256",
          "name": "",
          "type": "uint256"
        }
      ],
      "stateMutability": "view",
      "type": "function",
      "constant": true
    },
    {
      "inputs": [
        {
          "internalType": "address",
          "name": "spender",
          "type": "address"
        },
        {
          "internalType": "uint256",
          "name": "amount",
          "type": "uint256"
        }
      ],
      "name": "approve",
      "outputs": [
        {
          "internalType": "bool",
          "name": "",
          "type": "bool"
        }
      ],
      "stateMutability": "nonpayable",
      "type": "function"
    },
    {
      "inputs": [
        {
          "internalType": "address",
          "name": "account",
          "type": "address"
        }
      ],
      "name": "balanceOf",
      "outputs": [
        {
          "internalType": "uint256",
          "name": "",
          "type": "uint256"
        }
      ],
      "stateMutability": "view",
      "type": "function",
      "constant": true
    },
    {
      "inputs": [
        {
          "internalType": "uint256",
          "name": "_supply",
          "type": "uint256"
        },
        {
          "internalType": "uint256",
          "name": "_connectorBalance",
          "type": "uint256"
        },
        {
          "internalType": "uint32",
          "name": "_connectorWeight",
          "type": "uint32"
        },
        {
          "internalType": "uint256",
          "name": "_depositAmount",
          "type": "uint256"
        }
      ],
      "name": "calculatePurchaseReturn",
      "outputs": [
        {
          "internalType": "uint256",
          "name": "",
          "type": "uint256"
        }
      ],
      "stateMutability": "view",
      "type": "function",
      "constant": true
    },
    {
      "inputs": [
        {
          "internalType": "uint256",
          "name": "_supply",
          "type": "uint256"
        },
        {
          "internalType": "uint256",
          "name": "_connectorBalance",
          "type": "uint256"
        },
        {
          "internalType": "uint32",
          "name": "_connectorWeight",
          "type": "uint32"
        },
        {
          "internalType": "uint256",
          "name": "_sellAmount",
          "type": "uint256"
        }
      ],
      "name": "calculateSaleReturn",
      "outputs": [
        {
          "internalType": "uint256",
          "name": "",
          "type": "uint256"
        }
      ],
      "stateMutability": "view",
      "type": "function",
      "constant": true
    },
    {
      "inputs": [],
      "name": "decimals",
      "outputs": [
        {
          "internalType": "uint8",
          "name": "",
          "type": "uint8"
        }
      ],
      "stateMutability": "view",
      "type": "function",
      "constant": true
    },
    {
      "inputs": [
        {
          "internalType": "address",
          "name": "spender",
          "type": "address"
        },
        {
          "internalType": "uint256",
          "name": "subtractedValue",
          "type": "uint256"
        }
      ],
      "name": "decreaseAllowance",
      "outputs": [
        {
          "internalType": "bool",
          "name": "",
          "type": "bool"
        }
      ],
      "stateMutability": "nonpayable",
      "type": "function"
    },
    {
      "inputs": [
        {
          "internalType": "address",
          "name": "spender",
          "type": "address"
        },
        {
          "internalType": "uint256",
          "name": "addedValue",
          "type": "uint256"
        }
      ],
      "name": "increaseAllowance",
      "outputs": [
        {
          "internalType": "bool",
          "name": "",
          "type": "bool"
        }
      ],
      "stateMutability": "nonpayable",
      "type": "function"
    },
    {
      "inputs": [],
      "name": "maxGasPrice",
      "outputs": [
        {
          "internalType": "uint256",
          "name": "",
          "type": "uint256"
        }
      ],
      "stateMutability": "view",
      "type": "function",
      "constant": true
    },
    {
      "inputs": [],
      "name": "name",
      "outputs": [
        {
          "internalType": "string",
          "name": "",
          "type": "string"
        }
      ],
      "stateMutability": "view",
      "type": "function",
      "constant": true
    },
    {
      "inputs": [],
      "name": "owner",
      "outputs": [
        {
          "internalType": "address",
          "name": "",
          "type": "address"
        }
      ],
      "stateMutability": "view",
      "type": "function",
      "constant": true
    },
    {
      "inputs": [],
      "name": "poolBalance",
      "outputs": [
        {
          "internalType": "uint256",
          "name": "",
          "type": "uint256"
        }
      ],
      "stateMutability": "view",
      "type": "function",
      "constant": true
    },
    {
      "inputs": [],
      "name": "renounceOwnership",
      "outputs": [],
      "stateMutability": "nonpayable",
      "type": "function"
    },
    {
      "inputs": [],
      "name": "reserveRatio",
      "outputs": [
        {
          "internalType": "uint256",
          "name": "",
          "type": "uint256"
        }
      ],
      "stateMutability": "view",
      "type": "function",
      "constant": true
    },
    {
      "inputs": [],
      "name": "scale",
      "outputs": [
        {
          "internalType": "uint256",
          "name": "",
          "type": "uint256"
        }
      ],
      "stateMutability": "view",
      "type": "function",
      "constant": true
    },
    {
      "inputs": [
        {
          "internalType": "uint256",
          "name": "newMax",
          "type": "uint256"
        }
      ],
      "name": "setMaxGasPrice",
      "outputs": [
        {
          "internalType": "bool",
          "name": "",
          "type": "bool"
        }
      ],
      "stateMutability": "nonpayable",
      "type": "function"
    },
    {
      "inputs": [],
      "name": "symbol",
      "outputs": [
        {
          "internalType": "string",
          "name": "",
          "type": "string"
        }
      ],
      "stateMutability": "view",
      "type": "function",
      "constant": true
    },
    {
      "inputs": [],
      "name": "totalSupply",
      "outputs": [
        {
          "internalType": "uint256",
          "name": "",
          "type": "uint256"
        }
      ],
      "stateMutability": "view",
      "type": "function",
      "constant": true
    },
    {
      "inputs": [
        {
          "internalType": "address",
          "name": "recipient",
          "type": "address"
        },
        {
          "internalType": "uint256",
          "name": "amount",
          "type": "uint256"
        }
      ],
      "name": "transfer",
      "outputs": [
        {
          "internalType": "bool",
          "name": "",
          "type": "bool"
        }
      ],
      "stateMutability": "nonpayable",
      "type": "function"
    },
    {
      "inputs": [
        {
          "internalType": "address",
          "name": "sender",
          "type": "address"
        },
        {
          "internalType": "address",
          "name": "recipient",
          "type": "address"
        },
        {
          "internalType": "uint256",
          "name": "amount",
          "type": "uint256"
        }
      ],
      "name": "transferFrom",
      "outputs": [
        {
          "internalType": "bool",
          "name": "",
          "type": "bool"
        }
      ],
      "stateMutability": "nonpayable",
      "type": "function"
    },
    {
      "inputs": [
        {
          "internalType": "address",
          "name": "newOwner",
          "type": "address"
        }
      ],
      "name": "transferOwnership",
      "outputs": [],
      "stateMutability": "nonpayable",
      "type": "function"
    },
    {
      "inputs": [
        {
          "internalType": "uint256",
          "name": "_amount",
          "type": "uint256"
        }
      ],
      "name": "calculateCurvedMintReturn",
      "outputs": [
        {
          "internalType": "uint256",
          "name": "mintAmount",
          "type": "uint256"
        }
      ],
      "stateMutability": "view",
      "type": "function",
      "constant": true
    },
    {
      "inputs": [
        {
          "internalType": "uint256",
          "name": "_amount",
          "type": "uint256"
        }
      ],
      "name": "calculateCurvedBurnReturn",
      "outputs": [
        {
          "internalType": "uint256",
          "name": "burnAmount",
          "type": "uint256"
        }
      ],
      "stateMutability": "view",
      "type": "function",
      "constant": true
    },
    {
      "inputs": [
        {
          "internalType": "uint256",
          "name": "_deposit",
          "type": "uint256"
        }
      ],
      "name": "_curvedMint",
      "outputs": [
        {
          "internalType": "bool",
          "name": "",
          "type": "bool"
        }
      ],
      "stateMutability": "nonpayable",
      "type": "function"
    },
    {
      "inputs": [
        {
          "internalType": "uint256",
          "name": "_amount",
          "type": "uint256"
        }
      ],
      "name": "_curvedBurn",
      "outputs": [
        {
          "internalType": "bool",
          "name": "",
          "type": "bool"
        }
      ],
      "stateMutability": "nonpayable",
      "type": "function"
    }
  ],
  "bytecode": "0x6080604052670de0b6b3a7640000608655670de0b6b3a764000060875560875460016200002d919062001468565b608855620186a06089553480156200004457600080fd5b5060405162004fd338038062004fd383398181016040528101906200006a9190620016cb565b82828160039080519060200190620000849291906200137f565b5080600490805190602001906200009d9291906200137f565b505050701c35fedd14ffffffffffffffffffffffff6005602060808110620000ca57620000c962001765565b5b0181905550701b0ce43b323fffffffffffffffffffffff6005602160808110620000f957620000f862001765565b5b01819055507019f0028ec1ffffffffffffffffffffffff600560226080811062000128576200012762001765565b5b01819055507018ded91f0e7fffffffffffffffffffffff600560236080811062000157576200015662001765565b5b01819055507017d8ec7f0417ffffffffffffffffffffff600560246080811062000186576200018562001765565b5b01819055507016ddc6556cdbffffffffffffffffffffff6005602560808110620001b557620001b462001765565b5b01819055507015ecf52776a1ffffffffffffffffffffff6005602660808110620001e457620001e362001765565b5b01819055507015060c256cb2ffffffffffffffffffffff600560276080811062000213576200021262001765565b5b0181905550701428a2f98d72ffffffffffffffffffffff600560286080811062000242576200024162001765565b5b01819055507013545598e5c23fffffffffffffffffffff600560296080811062000271576200027062001765565b5b0181905550701288c4161ce1dfffffffffffffffffffff6005602a60808110620002a0576200029f62001765565b5b01819055507011c592761c666fffffffffffffffffffff6005602b60808110620002cf57620002ce62001765565b5b018190555070110a688680a757ffffffffffffffffffff6005602c60808110620002fe57620002fd62001765565b5b0181905550701056f1b5bedf77ffffffffffffffffffff6005602d608081106200032d576200032c62001765565b5b0181905550700faadceceeff8bffffffffffffffffffff6005602e608081106200035c576200035b62001765565b5b0181905550700f05dc6b27edadffffffffffffffffffff6005602f608081106200038b576200038a62001765565b5b0181905550700e67a5a25da4107fffffffffffffffffff6005603060808110620003ba57620003b962001765565b5b0181905550700dcff115b14eedffffffffffffffffffff6005603160808110620003e957620003e862001765565b5b0181905550700d3e7a392431239fffffffffffffffffff600560326080811062000418576200041762001765565b5b0181905550700cb2ff529eb71e4fffffffffffffffffff600560336080811062000447576200044662001765565b5b0181905550700c2d415c3db974afffffffffffffffffff600560346080811062000476576200047562001765565b5b0181905550700bad03e7d883f69bffffffffffffffffff6005603560808110620004a557620004a462001765565b5b0181905550700b320d03b2c343d5ffffffffffffffffff6005603660808110620004d457620004d362001765565b5b0181905550700abc25204e02828dffffffffffffffffff600560376080811062000503576200050262001765565b5b0181905550700a4b16f74ee4bb207fffffffffffffffff600560386080811062000532576200053162001765565b5b01819055507009deaf736ac1f569ffffffffffffffffff600560396080811062000561576200056062001765565b5b0181905550700976bd9952c7aa957fffffffffffffffff6005603a6080811062000590576200058f62001765565b5b01819055507009131271922eaa606fffffffffffffffff6005603b60808110620005bf57620005be62001765565b5b01819055507008b380f3558668c46fffffffffffffffff6005603c60808110620005ee57620005ed62001765565b5b0181905550700857ddf0117efa215bffffffffffffffff6005603d608081106200061d576200061c62001765565b5b01819055507007ffffffffffffffffffffffffffffffff6005603e608081106200064c576200064b62001765565b5b01819055507007abbf6f6abb9d087fffffffffffffffff6005603f608081106200067b576200067a62001765565b5b018190555070075af62cbac95f7dfa7fffffffffffffff6005604060808110620006aa57620006a962001765565b5b018190555070070d7fb7452e187ac13fffffffffffffff6005604160808110620006d957620006d862001765565b5b01819055507006c3390ecc8af379295fffffffffffffff600560426080811062000708576200070762001765565b5b018190555070067c00a3b07ffc01fd6fffffffffffffff600560436080811062000737576200073662001765565b5b0181905550700637b647c39cbb9d3d27ffffffffffffff600560446080811062000766576200076562001765565b5b01819055507005f63b1fc104dbd39587ffffffffffffff600560456080811062000795576200079462001765565b5b01819055507005b771955b36e12f7235ffffffffffffff6005604660808110620007c457620007c362001765565b5b018190555070057b3d49dda84556d6f6ffffffffffffff6005604760808110620007f357620007f262001765565b5b018190555070054183095b2c8ececf30ffffffffffffff600560486080811062000822576200082162001765565b5b018190555070050a28be635ca2b888f77fffffffffffff600560496080811062000851576200085062001765565b5b01819055507004d5156639708c9db33c3fffffffffffff6005604a6080811062000880576200087f62001765565b5b01819055507004a23105873875bd52dfdfffffffffffff6005604b60808110620008af57620008ae62001765565b5b0181905550700471649d87199aa990756fffffffffffff6005604c60808110620008de57620008dd62001765565b5b01819055507004429a21a029d4c1457cfbffffffffffff6005604d608081106200090d576200090c62001765565b5b0181905550700415bc6d6fb7dd71af2cb3ffffffffffff6005604e608081106200093c576200093b62001765565b5b01819055507003eab73b3bbfe282243ce1ffffffffffff6005604f608081106200096b576200096a62001765565b5b01819055507003c1771ac9fb6b4c18e229ffffffffffff60056050608081106200099a576200099962001765565b5b0181905550700399e96897690418f785257fffffffffff6005605160808110620009c957620009c862001765565b5b0181905550700373fc456c53bb779bf0ea9fffffffffff6005605260808110620009f857620009f762001765565b5b018190555070034f9e8e490c48e67e6ab8bfffffffffff600560536080811062000a275762000a2662001765565b5b018190555070032cbfd4a7adc790560b3337ffffffffff600560546080811062000a565762000a5562001765565b5b018190555070030b50570f6e5d2acca94613ffffffffff600560556080811062000a855762000a8462001765565b5b01819055507002eb40f9f620fda6b56c2861ffffffffff600560566080811062000ab45762000ab362001765565b5b01819055507002cc8340ecb0d0f520a6af58ffffffffff600560576080811062000ae35762000ae262001765565b5b01819055507002af09481380a0a35cf1ba02ffffffffff600560586080811062000b125762000b1162001765565b5b0181905550700292c5bdd3b92ec810287b1b3fffffffff600560596080811062000b415762000b4062001765565b5b0181905550700277abdcdab07d5a77ac6d6b9fffffffff6005605a6080811062000b705762000b6f62001765565b5b018190555070025daf6654b1eaa55fd64df5efffffffff6005605b6080811062000b9f5762000b9e62001765565b5b0181905550700244c49c648baa98192dce88b7ffffffff6005605c6080811062000bce5762000bcd62001765565b5b018190555070022ce03cd5619a311b2471268bffffffff6005605d6080811062000bfd5762000bfc62001765565b5b0181905550700215f77c045fbe885654a44a0fffffffff6005605e6080811062000c2c5762000c2b62001765565b5b01819055507001ffffffffffffffffffffffffffffffff6005605f6080811062000c5b5762000c5a62001765565b5b01819055507001eaefdbdaaee7421fc4d3ede5ffffffff600560606080811062000c8a5762000c8962001765565b5b01819055507001d6bd8b2eb257df7e8ca57b09bfffffff600560616080811062000cb95762000cb862001765565b5b01819055507001c35fedd14b861eb0443f7f133fffffff600560626080811062000ce85762000ce762001765565b5b01819055507001b0ce43b322bcde4a56e8ada5afffffff600560636080811062000d175762000d1662001765565b5b018190555070019f0028ec1fff007f5a195a39dfffffff600560646080811062000d465762000d4562001765565b5b018190555070018ded91f0e72ee74f49b15ba527ffffff600560656080811062000d755762000d7462001765565b5b018190555070017d8ec7f04136f4e5615fd41a63ffffff600560666080811062000da45762000da362001765565b5b018190555070016ddc6556cdb84bdc8d12d22e6fffffff600560676080811062000dd35762000dd262001765565b5b018190555070015ecf52776a1155b5bd8395814f7fffff600560686080811062000e025762000e0162001765565b5b018190555070015060c256cb23b3b3cc3754cf40ffffff600560696080811062000e315762000e3062001765565b5b01819055507001428a2f98d728ae223ddab715be3fffff6005606a6080811062000e605762000e5f62001765565b5b018190555070013545598e5c23276ccf0ede68034fffff6005606b6080811062000e8f5762000e8e62001765565b5b01819055507001288c4161ce1d6f54b7f61081194fffff6005606c6080811062000ebe5762000ebd62001765565b5b018190555070011c592761c666aa641d5a01a40f17ffff6005606d6080811062000eed5762000eec62001765565b5b0181905550700110a688680a7530515f3e6e6cfdcdffff6005606e6080811062000f1c5762000f1b62001765565b5b01819055507001056f1b5bedf75c6bcb2ce8aed428ffff6005606f6080811062000f4b5762000f4a62001765565b5b01819055506ffaadceceeff8a0890f3875f008277fff600560706080811062000f795762000f7862001765565b5b01819055506ff05dc6b27edad306388a600f6ba0bfff600560716080811062000fa75762000fa662001765565b5b01819055506fe67a5a25da41063de1495d5b18cdbfff600560726080811062000fd55762000fd462001765565b5b01819055506fdcff115b14eedde6fc3aa5353f2e4fff600560736080811062001003576200100262001765565b5b01819055506fd3e7a3924312399f9aae2e0f868f8fff600560746080811062001031576200103062001765565b5b01819055506fcb2ff529eb71e41582cccd5a1ee26fff60056075608081106200105f576200105e62001765565b5b01819055506fc2d415c3db974ab32a51840c0b67edff60056076608081106200108d576200108c62001765565b5b01819055506fbad03e7d883f69ad5b0a186184e06bff6005607760808110620010bb57620010ba62001765565b5b01819055506fb320d03b2c343d4829abd6075f0cc5ff6005607860808110620010e957620010e862001765565b5b01819055506fabc25204e02828d73c6e80bcdb1a95bf600560796080811062001117576200111662001765565b5b01819055506fa4b16f74ee4bb2040a1ec6c15fbbf2df6005607a6080811062001145576200114462001765565b5b01819055506f9deaf736ac1f569deb1b5ae3f36c130f6005607b6080811062001173576200117262001765565b5b01819055506f976bd9952c7aa957f5937d790ef650376005607c60808110620011a157620011a062001765565b5b01819055506f9131271922eaa6064b73a22d0bd4f2bf6005607d60808110620011cf57620011ce62001765565b5b01819055506f8b380f3558668c46c91c49a2f8e967b96005607e60808110620011fd57620011fc62001765565b5b01819055506f857ddf0117efa215952912839f6473e66005607f608081106200122b576200122a62001765565b5b01819055506200125062001244620012b160201b60201c565b620012b960201b60201c565b608754600a62001261919062001468565b608a8190555080608b60006101000a81548173ffffffffffffffffffffffffffffffffffffffff021916908373ffffffffffffffffffffffffffffffffffffffff160217905550505050620017f9565b600033905090565b6000608560009054906101000a900473ffffffffffffffffffffffffffffffffffffffff16905081608560006101000a81548173ffffffffffffffffffffffffffffffffffffffff021916908373ffffffffffffffffffffffffffffffffffffffff1602179055508173ffffffffffffffffffffffffffffffffffffffff168173ffffffffffffffffffffffffffffffffffffffff167f8be0079c531659141344cd1fd0a4f28419497f9722a3daafe3b4186f6b6457e060405160405180910390a35050565b8280546200138d90620017c3565b90600052602060002090601f016020900481019282620013b15760008555620013fd565b82601f10620013cc57805160ff1916838001178555620013fd565b82800160010185558215620013fd579182015b82811115620013fc578251825591602001919060010190620013df565b5b5090506200140c919062001410565b5090565b5b808211156200142b57600081600090555060010162001411565b5090565b6000819050919050565b7f4e487b7100000000000000000000000000000000000000000000000000000000600052601160045260246000fd5b600062001475826200142f565b915062001482836200142f565b9250817fffffffffffffffffffffffffffffffffffffffffffffffffffffffffffffffff0483118215151615620014be57620014bd62001439565b5b828202905092915050565b6000604051905090565b600080fd5b600080fd5b600080fd5b600080fd5b6000601f19601f8301169050919050565b7f4e487b7100000000000000000000000000000000000000000000000000000000600052604160045260246000fd5b6200153282620014e7565b810181811067ffffffffffffffff82111715620015545762001553620014f8565b5b80604052505050565b600062001569620014c9565b905062001577828262001527565b919050565b600067ffffffffffffffff8211156200159a5762001599620014f8565b5b620015a582620014e7565b9050602081019050919050565b60005b83811015620015d2578082015181840152602081019050620015b5565b83811115620015e2576000848401525b50505050565b6000620015ff620015f9846200157c565b6200155d565b9050828152602081018484840111156200161e576200161d620014e2565b5b6200162b848285620015b2565b509392505050565b600082601f8301126200164b576200164a620014dd565b5b81516200165d848260208601620015e8565b91505092915050565b600073ffffffffffffffffffffffffffffffffffffffff82169050919050565b6000620016938262001666565b9050919050565b620016a58162001686565b8114620016b157600080fd5b50565b600081519050620016c5816200169a565b92915050565b600080600060608486031215620016e757620016e6620014d3565b5b600084015167ffffffffffffffff811115620017085762001707620014d8565b5b620017168682870162001633565b935050602084015167ffffffffffffffff8111156200173a5762001739620014d8565b5b620017488682870162001633565b92505060406200175b86828701620016b4565b9150509250925092565b7f4e487b7100000000000000000000000000000000000000000000000000000000600052603260045260246000fd5b7f4e487b7100000000000000000000000000000000000000000000000000000000600052602260045260246000fd5b60006002820490506001821680620017dc57607f821691505b60208210811415620017f357620017f262001794565b5b50919050565b6137ca80620018096000396000f3fe608060405234801561001057600080fd5b50600436106101735760003560e01c8063715018a6116100de5780639c2c6dbb11610097578063d2fa635e11610071578063d2fa635e146104b2578063dd62ed3e146104e2578063f2fde38b14610512578063f51e181a1461052e57610173565b80639c2c6dbb14610422578063a457c2d714610452578063a9059cbb1461048257610173565b8063715018a61461035e57806371f429c6146103685780638da5cb5b1461039857806395d89b41146103b657806396365d44146103d45780639a4f318b146103f257610173565b8063313ce56711610130578063313ce5671461026257806339509351146102805780633de39c11146102b057806349f9b0f7146102ce5780636d6f1e01146102fe57806370a082311461032e57610173565b806306fdde0314610178578063095ea7b3146101965780630c7d5cd8146101c657806318160ddd146101e457806323b872dd1461020257806329a00e7c14610232575b600080fd5b61018061054c565b60405161018d9190612755565b60405180910390f35b6101b060048036038101906101ab9190612810565b6105de565b6040516101bd919061286b565b60405180910390f35b6101ce6105fc565b6040516101db9190612895565b60405180910390f35b6101ec610602565b6040516101f99190612895565b60405180910390f35b61021c600480360381019061021791906128b0565b61060c565b604051610229919061286b565b60405180910390f35b61024c6004803603810190610247919061293f565b610704565b6040516102599190612895565b60405180910390f35b61026a610809565b60405161027791906129c2565b60405180910390f35b61029a60048036038101906102959190612810565b610812565b6040516102a7919061286b565b60405180910390f35b6102b86108be565b6040516102c59190612895565b60405180910390f35b6102e860048036038101906102e3919061293f565b6108c4565b6040516102f59190612895565b60405180910390f35b610318600480360381019061031391906129dd565b6109fd565b6040516103259190612895565b60405180910390f35b61034860048036038101906103439190612a0a565b610a1d565b6040516103559190612895565b60405180910390f35b610366610a65565b005b610382600480360381019061037d91906129dd565b610aed565b60405161038f919061286b565b60405180910390f35b6103a0610cf1565b6040516103ad9190612a46565b60405180910390f35b6103be610d1b565b6040516103cb9190612755565b60405180910390f35b6103dc610dad565b6040516103e99190612895565b60405180910390f35b61040c600480360381019061040791906129dd565b610db3565b6040516104199190612895565b60405180910390f35b61043c600480360381019061043791906129dd565b610dd3565b604051610449919061286b565b60405180910390f35b61046c60048036038101906104679190612810565b611074565b604051610479919061286b565b60405180910390f35b61049c60048036038101906104979190612810565b61115f565b6040516104a9919061286b565b60405180910390f35b6104cc60048036038101906104c791906129dd565b61117d565b6040516104d9919061286b565b60405180910390f35b6104fc60048036038101906104f79190612a61565b61120b565b6040516105099190612895565b60405180910390f35b61052c60048036038101906105279190612a0a565b611292565b005b61053661138a565b6040516105439190612895565b60405180910390f35b60606003805461055b90612ad0565b80601f016020809104026020016040519081016040528092919081815260200182805461058790612ad0565b80156105d45780601f106105a9576101008083540402835291602001916105d4565b820191906000526020600020905b8154815290600101906020018083116105b757829003601f168201915b5050505050905090565b60006105f26105eb611390565b8484611398565b6001905092915050565b60895481565b6000600254905090565b6000610619848484611563565b6000600160008673ffffffffffffffffffffffffffffffffffffffff1673ffffffffffffffffffffffffffffffffffffffff1681526020019081526020016000206000610664611390565b73ffffffffffffffffffffffffffffffffffffffff1673ffffffffffffffffffffffffffffffffffffffff168152602001908152602001600020549050828110156106e4576040517f08c379a00000000000000000000000000000000000000000000000000000000081526004016106db90612b74565b60405180910390fd5b6106f8856106f0611390565b858403611398565b60019150509392505050565b600080851180156107155750600084115b8015610727575060008363ffffffff16115b80156107425750620f424063ffffffff168363ffffffff1611155b61074b57600080fd5b600082141561075d5760009050610801565b620f424063ffffffff168363ffffffff1614156107a0576107998461078b84886117e490919063ffffffff16565b6117fa90919063ffffffff16565b9050610801565b60008060006107b8878661181090919063ffffffff16565b90506107c9818888620f4240611826565b809350819450505060008260ff166107ea858b6117e490919063ffffffff16565b901c905088816107fa9190612bc3565b9450505050505b949350505050565b60006012905090565b60006108b461081f611390565b84846001600061082d611390565b73ffffffffffffffffffffffffffffffffffffffff1673ffffffffffffffffffffffffffffffffffffffff16815260200190815260200160002060008873ffffffffffffffffffffffffffffffffffffffff1673ffffffffffffffffffffffffffffffffffffffff168152602001908152602001600020546108af9190612bf7565b611398565b6001905092915050565b60865481565b600080851180156108d55750600084115b80156108e7575060008363ffffffff16115b80156109025750620f424063ffffffff168363ffffffff1611155b801561090e5750848211155b61091757600080fd5b600082141561092957600090506109f5565b84821415610939578390506109f5565b620f424063ffffffff168363ffffffff16141561097c576109758561096784876117e490919063ffffffff16565b6117fa90919063ffffffff16565b90506109f5565b6000806000848861098d9190612bc3565b905061099e8882620f424089611826565b809350819450505060006109bb84896117e490919063ffffffff16565b905060008360ff1689901b90506109ed856109df838561189290919063ffffffff16565b6117fa90919063ffffffff16565b955050505050505b949350505050565b6000610a16610a0a610602565b608854608954856108c4565b9050919050565b60008060008373ffffffffffffffffffffffffffffffffffffffff1673ffffffffffffffffffffffffffffffffffffffff168152602001908152602001600020549050919050565b610a6d611390565b73ffffffffffffffffffffffffffffffffffffffff16610a8b610cf1565b73ffffffffffffffffffffffffffffffffffffffff1614610ae1576040517f08c379a0000000000000000000000000000000000000000000000000000000008152600401610ad890612c99565b60405180910390fd5b610aeb60006118a8565b565b60006086543a1115610b34576040517f08c379a0000000000000000000000000000000000000000000000000000000008152600401610b2b90612d51565b60405180910390fd5b8160008111610b78576040517f08c379a0000000000000000000000000000000000000000000000000000000008152600401610b6f90612dbd565b60405180910390fd5b80610b8233610a1d565b1015610bc3576040517f08c379a0000000000000000000000000000000000000000000000000000000008152600401610bba90612e4f565b60405180910390fd5b6000610bce846109fd565b9050610be58160885461189290919063ffffffff16565b608881905550610bf5338561196e565b608b60009054906101000a900473ffffffffffffffffffffffffffffffffffffffff1673ffffffffffffffffffffffffffffffffffffffff1663a9059cbb33836040518363ffffffff1660e01b8152600401610c52929190612e6f565b6020604051808303816000875af1158015610c71573d6000803e3d6000fd5b505050506040513d601f19601f82011682018060405250810190610c959190612ec4565b503373ffffffffffffffffffffffffffffffffffffffff167f14feb1b32dbb3ebf172a72bc6b201cb3ddcd8dd148da8b8ac41207f2d69bdd328583604051610cde929190612ef1565b60405180910390a2600192505050919050565b6000608560009054906101000a900473ffffffffffffffffffffffffffffffffffffffff16905090565b606060048054610d2a90612ad0565b80601f0160208091040260200160405190810160405280929190818152602001828054610d5690612ad0565b8015610da35780601f10610d7857610100808354040283529160200191610da3565b820191906000526020600020905b815481529060010190602001808311610d8657829003601f168201915b5050505050905090565b60885481565b6000610dcc610dc0610602565b60885460895485610704565b9050919050565b60006086543a1115610e1a576040517f08c379a0000000000000000000000000000000000000000000000000000000008152600401610e1190612d51565b60405180910390fd5b8160008111610e5e576040517f08c379a0000000000000000000000000000000000000000000000000000000008152600401610e5590612dbd565b60405180910390fd5b6000608b60009054906101000a900473ffffffffffffffffffffffffffffffffffffffff1673ffffffffffffffffffffffffffffffffffffffff1663dd62ed3e33306040518363ffffffff1660e01b8152600401610ebd929190612f1a565b602060405180830381865afa158015610eda573d6000803e3d6000fd5b505050506040513d601f19601f82011682018060405250810190610efe9190612f58565b905083811015610f43576040517f08c379a0000000000000000000000000000000000000000000000000000000008152600401610f3a90612fd1565b60405180910390fd5b608b60009054906101000a900473ffffffffffffffffffffffffffffffffffffffff1673ffffffffffffffffffffffffffffffffffffffff166323b872dd3330876040518463ffffffff1660e01b8152600401610fa293929190612ff1565b6020604051808303816000875af1158015610fc1573d6000803e3d6000fd5b505050506040513d601f19601f82011682018060405250810190610fe59190612ec4565b506000610ff185610db3565b9050610ffd3382611b45565b6110128560885461181090919063ffffffff16565b6088819055503373ffffffffffffffffffffffffffffffffffffffff167f65ab8b57af027ad387b3f608b0745de61b7dc81d07be6ded03736db32fe46bd98287604051611060929190612ef1565b60405180910390a260019350505050919050565b60008060016000611083611390565b73ffffffffffffffffffffffffffffffffffffffff1673ffffffffffffffffffffffffffffffffffffffff16815260200190815260200160002060008573ffffffffffffffffffffffffffffffffffffffff1673ffffffffffffffffffffffffffffffffffffffff16815260200190815260200160002054905082811015611140576040517f08c379a00000000000000000000000000000000000000000000000000000000081526004016111379061309a565b60405180910390fd5b61115461114b611390565b85858403611398565b600191505092915050565b600061117361116c611390565b8484611563565b6001905092915050565b6000611187611390565b73ffffffffffffffffffffffffffffffffffffffff166111a5610cf1565b73ffffffffffffffffffffffffffffffffffffffff16146111fb576040517f08c379a00000000000000000000000000000000000000000000000000000000081526004016111f290612c99565b60405180910390fd5b8160868190555060019050919050565b6000600160008473ffffffffffffffffffffffffffffffffffffffff1673ffffffffffffffffffffffffffffffffffffffff16815260200190815260200160002060008373ffffffffffffffffffffffffffffffffffffffff1673ffffffffffffffffffffffffffffffffffffffff16815260200190815260200160002054905092915050565b61129a611390565b73ffffffffffffffffffffffffffffffffffffffff166112b8610cf1565b73ffffffffffffffffffffffffffffffffffffffff161461130e576040517f08c379a000000000000000000000000000000000000000000000000000000000815260040161130590612c99565b60405180910390fd5b600073ffffffffffffffffffffffffffffffffffffffff168173ffffffffffffffffffffffffffffffffffffffff16141561137e576040517f08c379a00000000000000000000000000000000000000000000000000000000081526004016113759061312c565b60405180910390fd5b611387816118a8565b50565b60875481565b600033905090565b600073ffffffffffffffffffffffffffffffffffffffff168373ffffffffffffffffffffffffffffffffffffffff161415611408576040517f08c379a00000000000000000000000000000000000000000000000000000000081526004016113ff906131be565b60405180910390fd5b600073ffffffffffffffffffffffffffffffffffffffff168273ffffffffffffffffffffffffffffffffffffffff161415611478576040517f08c379a000000000000000000000000000000000000000000000000000000000815260040161146f90613250565b60405180910390fd5b80600160008573ffffffffffffffffffffffffffffffffffffffff1673ffffffffffffffffffffffffffffffffffffffff16815260200190815260200160002060008473ffffffffffffffffffffffffffffffffffffffff1673ffffffffffffffffffffffffffffffffffffffff168152602001908152602001600020819055508173ffffffffffffffffffffffffffffffffffffffff168373ffffffffffffffffffffffffffffffffffffffff167f8c5be1e5ebec7d5bd14f71427d1e84f3dd0314c0f7b2291e5b200ac8c7c3b925836040516115569190612895565b60405180910390a3505050565b600073ffffffffffffffffffffffffffffffffffffffff168373ffffffffffffffffffffffffffffffffffffffff1614156115d3576040517f08c379a00000000000000000000000000000000000000000000000000000000081526004016115ca906132e2565b60405180910390fd5b600073ffffffffffffffffffffffffffffffffffffffff168273ffffffffffffffffffffffffffffffffffffffff161415611643576040517f08c379a000000000000000000000000000000000000000000000000000000000815260040161163a90613374565b60405180910390fd5b61164e838383611ca5565b60008060008573ffffffffffffffffffffffffffffffffffffffff1673ffffffffffffffffffffffffffffffffffffffff168152602001908152602001600020549050818110156116d4576040517f08c379a00000000000000000000000000000000000000000000000000000000081526004016116cb90613406565b60405180910390fd5b8181036000808673ffffffffffffffffffffffffffffffffffffffff1673ffffffffffffffffffffffffffffffffffffffff16815260200190815260200160002081905550816000808573ffffffffffffffffffffffffffffffffffffffff1673ffffffffffffffffffffffffffffffffffffffff16815260200190815260200160002060008282546117679190612bf7565b925050819055508273ffffffffffffffffffffffffffffffffffffffff168473ffffffffffffffffffffffffffffffffffffffff167fddf252ad1be2c89b69c2b068fc378daa952ba7f163c4a11628f55a4df523b3ef846040516117cb9190612895565b60405180910390a36117de848484611caa565b50505050565b600081836117f29190613426565b905092915050565b6000818361180891906134af565b905092915050565b6000818361181e9190612bf7565b905092915050565b60008060008363ffffffff168563ffffffff166118438989611caf565b61184d9190613426565b61185791906134af565b9050600061186482611e40565b905061188281607f61187691906134e0565b60ff1683901c82611f22565b8193509350505094509492505050565b600081836118a09190612bc3565b905092915050565b6000608560009054906101000a900473ffffffffffffffffffffffffffffffffffffffff16905081608560006101000a81548173ffffffffffffffffffffffffffffffffffffffff021916908373ffffffffffffffffffffffffffffffffffffffff1602179055508173ffffffffffffffffffffffffffffffffffffffff168173ffffffffffffffffffffffffffffffffffffffff167f8be0079c531659141344cd1fd0a4f28419497f9722a3daafe3b4186f6b6457e060405160405180910390a35050565b600073ffffffffffffffffffffffffffffffffffffffff168273ffffffffffffffffffffffffffffffffffffffff1614156119de576040517f08c379a00000000000000000000000000000000000000000000000000000000081526004016119d590613586565b60405180910390fd5b6119ea82600083611ca5565b60008060008473ffffffffffffffffffffffffffffffffffffffff1673ffffffffffffffffffffffffffffffffffffffff16815260200190815260200160002054905081811015611a70576040517f08c379a0000000000000000000000000000000000000000000000000000000008152600401611a6790613618565b60405180910390fd5b8181036000808573ffffffffffffffffffffffffffffffffffffffff1673ffffffffffffffffffffffffffffffffffffffff168152602001908152602001600020819055508160026000828254611ac79190612bc3565b92505081905550600073ffffffffffffffffffffffffffffffffffffffff168373ffffffffffffffffffffffffffffffffffffffff167fddf252ad1be2c89b69c2b068fc378daa952ba7f163c4a11628f55a4df523b3ef84604051611b2c9190612895565b60405180910390a3611b4083600084611caa565b505050565b600073ffffffffffffffffffffffffffffffffffffffff168273ffffffffffffffffffffffffffffffffffffffff161415611bb5576040517f08c379a0000000000000000000000000000000000000000000000000000000008152600401611bac90613684565b60405180910390fd5b611bc160008383611ca5565b8060026000828254611bd39190612bf7565b92505081905550806000808473ffffffffffffffffffffffffffffffffffffffff1673ffffffffffffffffffffffffffffffffffffffff1681526020019081526020016000206000828254611c289190612bf7565b925050819055508173ffffffffffffffffffffffffffffffffffffffff16600073ffffffffffffffffffffffffffffffffffffffff167fddf252ad1be2c89b69c2b068fc378daa952ba7f163c4a11628f55a4df523b3ef83604051611c8d9190612895565b60405180910390a3611ca160008383611caa565b5050565b505050565b505050565b60007001ffffffffffffffffffffffffffffffff831115611cd357611cd26136a4565b5b600080836f8000000000000000000000000000000086611cf39190613426565b611cfd91906134af565b90507001000000000000000000000000000000008110611d6b576000611d3d6f8000000000000000000000000000000083611d3891906134af565b612631565b90508060ff1682901c91506f800000000000000000000000000000008160ff16611d679190613426565b9250505b6f80000000000000000000000000000000811115611e13576000607f90505b60008160ff161115611e11576f800000000000000000000000000000008283611db39190613426565b611dbd91906134af565b91507001000000000000000000000000000000008210611e0057600182901c9150600181611deb91906134e0565b60ff166001901b83611dfd9190612bf7565b92505b80611e0a906136d3565b9050611d8a565b505b607a60ff166f02c5c85fdf473de6af278ece600fcbda83611e349190613426565b901c9250505092915050565b600080602090506000607f90505b8060ff16600183611e5f91906136fd565b60ff161015611eb557600060028284611e7891906136fd565b611e829190613734565b90508460058260ff1660808110611e9c57611e9b613765565b5b015410611eab57809250611eaf565b8091505b50611e4e565b8360058260ff1660808110611ecd57611ecc613765565b5b015410611ede578092505050611f1d565b8360058360ff1660808110611ef657611ef5613765565b5b015410611f07578192505050611f1d565b6000611f1657611f156136a4565b5b6000925050505b919050565b60008083905060008360ff168583611f3a9190613426565b901c91506f03442c4e6074a82f1797f72ac000000082611f5a9190613426565b81611f659190612bf7565b90508360ff168583611f779190613426565b901c91506f0116b96f757c380fb287fd0e4000000082611f979190613426565b81611fa29190612bf7565b90508360ff168583611fb49190613426565b901c91506e45ae5bdd5f0e03eca1ff439000000082611fd39190613426565b81611fde9190612bf7565b90508360ff168583611ff09190613426565b901c91506e0defabf91302cd95b9ffda500000008261200f9190613426565b8161201a9190612bf7565b90508360ff16858361202c9190613426565b901c91506e02529ca9832b22439efff9b80000008261204b9190613426565b816120569190612bf7565b90508360ff1685836120689190613426565b901c91506d54f1cf12bd04e516b6da88000000826120869190613426565b816120919190612bf7565b90508360ff1685836120a39190613426565b901c91506d0a9e39e257a09ca2d6db51000000826120c19190613426565b816120cc9190612bf7565b90508360ff1685836120de9190613426565b901c91506d012e066e7b839fa050c309000000826120fc9190613426565b816121079190612bf7565b90508360ff1685836121199190613426565b901c91506c1e33d7d926c329a1ad1a800000826121369190613426565b816121419190612bf7565b90508360ff1685836121539190613426565b901c91506c02bee513bdb4a6b19b5f800000826121709190613426565b8161217b9190612bf7565b90508360ff16858361218d9190613426565b901c91506b3a9316fa79b88eccf2a00000826121a99190613426565b816121b49190612bf7565b90508360ff1685836121c69190613426565b901c91506b048177ebe1fa812375200000826121e29190613426565b816121ed9190612bf7565b90508360ff1685836121ff9190613426565b901c91506a5263fe90242dcbacf000008261221a9190613426565b816122259190612bf7565b90508360ff1685836122379190613426565b901c91506a057e22099c030d94100000826122529190613426565b8161225d9190612bf7565b90508360ff16858361226f9190613426565b901c91506957e22099c030d9410000826122899190613426565b816122949190612bf7565b90508360ff1685836122a69190613426565b901c915069052b6b54569976310000826122c09190613426565b816122cb9190612bf7565b90508360ff1685836122dd9190613426565b901c9150684985f67696bf748000826122f69190613426565b816123019190612bf7565b90508360ff1685836123139190613426565b901c91506803dea12ea99e4980008261232c9190613426565b816123379190612bf7565b90508360ff1685836123499190613426565b901c91506731880f2214b6e000826123619190613426565b8161236c9190612bf7565b90508360ff16858361237e9190613426565b901c915067025bcff56eb36000826123969190613426565b816123a19190612bf7565b90508360ff1685836123b39190613426565b901c9150661b722e10ab1000826123ca9190613426565b816123d59190612bf7565b90508360ff1685836123e79190613426565b901c91506601317c70077000826123fe9190613426565b816124099190612bf7565b90508360ff16858361241b9190613426565b901c9150650cba84aafa00826124319190613426565b8161243c9190612bf7565b90508360ff16858361244e9190613426565b901c91506482573a0a00826124639190613426565b8161246e9190612bf7565b90508360ff1685836124809190613426565b901c91506405035ad900826124959190613426565b816124a09190612bf7565b90508360ff1685836124b29190613426565b901c9150632f881b00826124c69190613426565b816124d19190612bf7565b90508360ff1685836124e39190613426565b901c91506301b29340826124f79190613426565b816125029190612bf7565b90508360ff1685836125149190613426565b901c9150620efc40826125279190613426565b816125329190612bf7565b90508360ff1685836125449190613426565b901c9150617fe0826125569190613426565b816125619190612bf7565b90508360ff1685836125739190613426565b901c9150610420826125859190613426565b816125909190612bf7565b90508360ff1685836125a29190613426565b901c91506021826125b39190613426565b816125be9190612bf7565b90508360ff1685836125d09190613426565b901c91506001826125e19190613426565b816125ec9190612bf7565b90508360ff166001901b856f0688589cc0e9505e2f2fee55800000008361261391906134af565b61261d9190612bf7565b6126279190612bf7565b9250505092915050565b600080600090506000839050610100811015612671575b600181111561266c57600181901c905060018261266591906136fd565b9150612648565b6126b2565b6000608090505b60008160ff1611156126b0578060ff166001901b82106126a1578060ff1682901c915080831792505b60018160ff16901c9050612678565b505b8192505050919050565b600081519050919050565b600082825260208201905092915050565b60005b838110156126f65780820151818401526020810190506126db565b83811115612705576000848401525b50505050565b6000601f19601f8301169050919050565b6000612727826126bc565b61273181856126c7565b93506127418185602086016126d8565b61274a8161270b565b840191505092915050565b6000602082019050818103600083015261276f818461271c565b905092915050565b600080fd5b600073ffffffffffffffffffffffffffffffffffffffff82169050919050565b60006127a78261277c565b9050919050565b6127b78161279c565b81146127c257600080fd5b50565b6000813590506127d4816127ae565b92915050565b6000819050919050565b6127ed816127da565b81146127f857600080fd5b50565b60008135905061280a816127e4565b92915050565b6000806040838503121561282757612826612777565b5b6000612835858286016127c5565b9250506020612846858286016127fb565b9150509250929050565b60008115159050919050565b61286581612850565b82525050565b6000602082019050612880600083018461285c565b92915050565b61288f816127da565b82525050565b60006020820190506128aa6000830184612886565b92915050565b6000806000606084860312156128c9576128c8612777565b5b60006128d7868287016127c5565b93505060206128e8868287016127c5565b92505060406128f9868287016127fb565b9150509250925092565b600063ffffffff82169050919050565b61291c81612903565b811461292757600080fd5b50565b60008135905061293981612913565b92915050565b6000806000806080858703121561295957612958612777565b5b6000612967878288016127fb565b9450506020612978878288016127fb565b93505060406129898782880161292a565b925050606061299a878288016127fb565b91505092959194509250565b600060ff82169050919050565b6129bc816129a6565b82525050565b60006020820190506129d760008301846129b3565b92915050565b6000602082840312156129f3576129f2612777565b5b6000612a01848285016127fb565b91505092915050565b600060208284031215612a2057612a1f612777565b5b6000612a2e848285016127c5565b91505092915050565b612a408161279c565b82525050565b6000602082019050612a5b6000830184612a37565b92915050565b60008060408385031215612a7857612a77612777565b5b6000612a86858286016127c5565b9250506020612a97858286016127c5565b9150509250929050565b7f4e487b7100000000000000000000000000000000000000000000000000000000600052602260045260246000fd5b60006002820490506001821680612ae857607f821691505b60208210811415612afc57612afb612aa1565b5b50919050565b7f45524332303a207472616e7366657220616d6f756e742065786365656473206160008201527f6c6c6f77616e6365000000000000000000000000000000000000000000000000602082015250565b6000612b5e6028836126c7565b9150612b6982612b02565b604082019050919050565b60006020820190508181036000830152612b8d81612b51565b9050919050565b7f4e487b7100000000000000000000000000000000000000000000000000000000600052601160045260246000fd5b6000612bce826127da565b9150612bd9836127da565b925082821015612bec57612beb612b94565b5b828203905092915050565b6000612c02826127da565b9150612c0d836127da565b9250827fffffffffffffffffffffffffffffffffffffffffffffffffffffffffffffffff03821115612c4257612c41612b94565b5b828201905092915050565b7f4f776e61626c653a2063616c6c6572206973206e6f7420746865206f776e6572600082015250565b6000612c836020836126c7565b9150612c8e82612c4d565b602082019050919050565b60006020820190508181036000830152612cb281612c76565b9050919050565b7f4d7573742073656e6420657175616c20746f206f72206c6f776572207468616e60008201527f206d6178696d756d2067617320707269636520746f206d69746967617465206660208201527f726f6e742072756e6e696e672061747461636b732e0000000000000000000000604082015250565b6000612d3b6055836126c7565b9150612d4682612cb9565b606082019050919050565b60006020820190508181036000830152612d6a81612d2e565b9050919050565b7f416d6f756e74206d757374206265206e6f6e2d7a65726f210000000000000000600082015250565b6000612da76018836126c7565b9150612db282612d71565b602082019050919050565b60006020820190508181036000830152612dd681612d9a565b9050919050565b7f53656e64657220646f6573206e6f74206861766520656e6f75676820746f6b6560008201527f6e7320746f206275726e2e000000000000000000000000000000000000000000602082015250565b6000612e39602b836126c7565b9150612e4482612ddd565b604082019050919050565b60006020820190508181036000830152612e6881612e2c565b9050919050565b6000604082019050612e846000830185612a37565b612e916020830184612886565b9392505050565b612ea181612850565b8114612eac57600080fd5b50565b600081519050612ebe81612e98565b92915050565b600060208284031215612eda57612ed9612777565b5b6000612ee884828501612eaf565b91505092915050565b6000604082019050612f066000830185612886565b612f136020830184612886565b9392505050565b6000604082019050612f2f6000830185612a37565b612f3c6020830184612a37565b9392505050565b600081519050612f52816127e4565b92915050565b600060208284031215612f6e57612f6d612777565b5b6000612f7c84828501612f43565b91505092915050565b7f436865636b2074686520746f6b656e20616c6c6f77616e636500000000000000600082015250565b6000612fbb6019836126c7565b9150612fc682612f85565b602082019050919050565b60006020820190508181036000830152612fea81612fae565b9050919050565b60006060820190506130066000830186612a37565b6130136020830185612a37565b6130206040830184612886565b949350505050565b7f45524332303a2064656372656173656420616c6c6f77616e63652062656c6f7760008201527f207a65726f000000000000000000000000000000000000000000000000000000602082015250565b60006130846025836126c7565b915061308f82613028565b604082019050919050565b600060208201905081810360008301526130b381613077565b9050919050565b7f4f776e61626c653a206e6577206f776e657220697320746865207a65726f206160008201527f6464726573730000000000000000000000000000000000000000000000000000602082015250565b60006131166026836126c7565b9150613121826130ba565b604082019050919050565b6000602082019050818103600083015261314581613109565b9050919050565b7f45524332303a20617070726f76652066726f6d20746865207a65726f2061646460008201527f7265737300000000000000000000000000000000000000000000000000000000602082015250565b60006131a86024836126c7565b91506131b38261314c565b604082019050919050565b600060208201905081810360008301526131d78161319b565b9050919050565b7f45524332303a20617070726f766520746f20746865207a65726f20616464726560008201527f7373000000000000000000000000000000000000000000000000000000000000602082015250565b600061323a6022836126c7565b9150613245826131de565b604082019050919050565b600060208201905081810360008301526132698161322d565b9050919050565b7f45524332303a207472616e736665722066726f6d20746865207a65726f20616460008201527f6472657373000000000000000000000000000000000000000000000000000000602082015250565b60006132cc6025836126c7565b91506132d782613270565b604082019050919050565b600060208201905081810360008301526132fb816132bf565b9050919050565b7f45524332303a207472616e7366657220746f20746865207a65726f206164647260008201527f6573730000000000000000000000000000000000000000000000000000000000602082015250565b600061335e6023836126c7565b915061336982613302565b604082019050919050565b6000602082019050818103600083015261338d81613351565b9050919050565b7f45524332303a207472616e7366657220616d6f756e742065786365656473206260008201527f616c616e63650000000000000000000000000000000000000000000000000000602082015250565b60006133f06026836126c7565b91506133fb82613394565b604082019050919050565b6000602082019050818103600083015261341f816133e3565b9050919050565b6000613431826127da565b915061343c836127da565b9250817fffffffffffffffffffffffffffffffffffffffffffffffffffffffffffffffff048311821515161561347557613474612b94565b5b828202905092915050565b7f4e487b7100000000000000000000000000000000000000000000000000000000600052601260045260246000fd5b60006134ba826127da565b91506134c5836127da565b9250826134d5576134d4613480565b5b828204905092915050565b60006134eb826129a6565b91506134f6836129a6565b92508282101561350957613508612b94565b5b828203905092915050565b7f45524332303a206275726e2066726f6d20746865207a65726f2061646472657360008201527f7300000000000000000000000000000000000000000000000000000000000000602082015250565b60006135706021836126c7565b915061357b82613514565b604082019050919050565b6000602082019050818103600083015261359f81613563565b9050919050565b7f45524332303a206275726e20616d6f756e7420657863656564732062616c616e60008201527f6365000000000000000000000000000000000000000000000000000000000000602082015250565b60006136026022836126c7565b915061360d826135a6565b604082019050919050565b60006020820190508181036000830152613631816135f5565b9050919050565b7f45524332303a206d696e7420746f20746865207a65726f206164647265737300600082015250565b600061366e601f836126c7565b915061367982613638565b602082019050919050565b6000602082019050818103600083015261369d81613661565b9050919050565b7f4e487b7100000000000000000000000000000000000000000000000000000000600052600160045260246000fd5b60006136de826129a6565b915060008214156136f2576136f1612b94565b5b600182039050919050565b6000613708826129a6565b9150613713836129a6565b92508260ff0382111561372957613728612b94565b5b828201905092915050565b600061373f826129a6565b915061374a836129a6565b92508261375a57613759613480565b5b828204905092915050565b7f4e487b7100000000000000000000000000000000000000000000000000000000600052603260045260246000fdfea2646970667358221220b6979e663581d7cb53a60029ce378b083d89e3ebcdd9d6bc0ae655e155263e1f64736f6c634300080a0033",
  "immutableReferences": {},
  "source": "pragma solidity ^0.8.10;\n\n\nimport \"openzeppelin-solidity/contracts/token/ERC20/ERC20.sol\";\n\nimport \"openzeppelin-solidity/contracts/access/Ownable.sol\";\nimport \"openzeppelin-solidity/contracts/utils/math/SafeMath.sol\";\n\nimport \"./Interface/IBondingCurve.sol\";\nimport \"./BancorFormula.sol\";\nimport \"./MaxGasPrice.sol\";\n\ncontract CurveBondedToken is ERC20 ,  IBondingCurve, BancorFormula, Ownable, MaxGasPrice {\n    using SafeMath for uint256;\n\n    // Use the same decimal places as ether.\n    uint256 public scale = 10**18;\n    uint256 public poolBalance = 1*scale;\n    uint256 public reserveRatio= 100000;\n    uint256 _totalSupply;\n     ERC20 token;\n    constructor(string memory name,string memory symbol, address tok )  ERC20(name,symbol) {\n        _totalSupply=10*scale;\n        token=ERC20(tok);\n    }\n\n    function calculateCurvedMintReturn(uint256 _amount)\n        public view returns (uint256 mintAmount)\n    {\n        return calculatePurchaseReturn(totalSupply(), poolBalance, uint32(reserveRatio), _amount);\n    }\n\n    function calculateCurvedBurnReturn(uint256 _amount)\n        public view returns (uint256 burnAmount)\n    {\n        return calculateSaleReturn(totalSupply(), poolBalance, uint32(reserveRatio), _amount);\n    }\n\n    modifier validMint(uint256 _amount) {\n        require(_amount > 0, \"Amount must be non-zero!\");\n        _;\n    }\n\n    modifier validBurn(uint256 _amount) {\n        require(_amount > 0, \"Amount must be non-zero!\");\n        require(balanceOf(msg.sender) >= _amount, \"Sender does not have enough tokens to burn.\");\n        _;\n    }\n\n    function _curvedMint(uint256 _deposit) \n        validGasPrice\n        validMint(_deposit)\n        public returns (bool)\n    {\n            uint256 allowance = token.allowance(msg.sender, address(this));\n    require(allowance >= _deposit, \"Check the token allowance\");\n    token.transferFrom(msg.sender, address(this), _deposit);\n        uint256 amount = calculateCurvedMintReturn(_deposit);\n        _mint(msg.sender, amount);\n        poolBalance = poolBalance.add(_deposit);\n        emit CurvedMint(msg.sender, amount, _deposit);\n        return true;\n    }\n\n    function _curvedBurn(uint256 _amount)\n        validGasPrice\n        validBurn(_amount)\n        public returns (bool)\n    {\n        uint256 reimbursement = calculateCurvedBurnReturn(_amount);\n        poolBalance = poolBalance.sub(reimbursement);\n        _burn(msg.sender, _amount);\n        token.transfer(msg.sender, reimbursement);\n        emit CurvedBurn(msg.sender, _amount, reimbursement);\n        return true;\n    }\n}\n",
  "sourcePath": "C:\\Users\\Vamsi\\demi\\contracts\\CurveBondedToken.sol",
  "compiler": {
    "name": "solc",
    "version": "0.8.10+commit.fc410830.Emscripten.clang"
  },
  "schemaVersion": "3.4.4",
  "updatedAt": "2022-01-23T08:00:23.195Z",
  "networkType": "ethereum",
  "devdoc": {
    "kind": "dev",
    "methods": {
      "allowance(address,address)": {
        "details": "See {IERC20-allowance}."
      },
      "approve(address,uint256)": {
        "details": "See {IERC20-approve}. Requirements: - `spender` cannot be the zero address."
      },
      "balanceOf(address)": {
        "details": "See {IERC20-balanceOf}."
      },
      "calculatePurchaseReturn(uint256,uint256,uint32,uint256)": {
        "details": "given a token supply, connector balance, weight and a deposit amount (in the connector token), calculates the return for a given conversion (in the main token) Formula: Return = _supply * ((1 + _depositAmount / _connectorBalance) ^ (_connectorWeight / 1000000) - 1)",
        "params": {
          "_connectorBalance": "total connector balance",
          "_connectorWeight": "connector weight, represented in ppm, 1-1000000",
          "_depositAmount": "deposit amount, in connector token",
          "_supply": "token total supply"
        },
        "returns": {
          "_0": "purchase return amount"
        }
      },
      "calculateSaleReturn(uint256,uint256,uint32,uint256)": {
        "details": "given a token supply, connector balance, weight and a sell amount (in the main token), calculates the return for a given conversion (in the connector token) Formula: Return = _connectorBalance * (1 - (1 - _sellAmount / _supply) ^ (1 / (_connectorWeight / 1000000)))",
        "params": {
          "_connectorBalance": "total connector",
          "_connectorWeight": "constant connector Weight, represented in ppm, 1-1000000",
          "_sellAmount": "sell amount, in the token itself",
          "_supply": "token total supply"
        },
        "returns": {
          "_0": "sale return amount"
        }
      },
      "decimals()": {
        "details": "Returns the number of decimals used to get its user representation. For example, if `decimals` equals `2`, a balance of `505` tokens should be displayed to a user as `5.05` (`505 / 10 ** 2`). Tokens usually opt for a value of 18, imitating the relationship between Ether and Wei. This is the value {ERC20} uses, unless this function is overridden; NOTE: This information is only used for _display_ purposes: it in no way affects any of the arithmetic of the contract, including {IERC20-balanceOf} and {IERC20-transfer}."
      },
      "decreaseAllowance(address,uint256)": {
        "details": "Atomically decreases the allowance granted to `spender` by the caller. This is an alternative to {approve} that can be used as a mitigation for problems described in {IERC20-approve}. Emits an {Approval} event indicating the updated allowance. Requirements: - `spender` cannot be the zero address. - `spender` must have allowance for the caller of at least `subtractedValue`."
      },
      "increaseAllowance(address,uint256)": {
        "details": "Atomically increases the allowance granted to `spender` by the caller. This is an alternative to {approve} that can be used as a mitigation for problems described in {IERC20-approve}. Emits an {Approval} event indicating the updated allowance. Requirements: - `spender` cannot be the zero address."
      },
      "name()": {
        "details": "Returns the name of the token."
      },
      "owner()": {
        "details": "Returns the address of the current owner."
      },
      "renounceOwnership()": {
        "details": "Leaves the contract without owner. It will not be possible to call `onlyOwner` functions anymore. Can only be called by the current owner. NOTE: Renouncing ownership will leave the contract without an owner, thereby removing any functionality that is only available to the owner."
      },
      "symbol()": {
        "details": "Returns the symbol of the token, usually a shorter version of the name."
      },
      "totalSupply()": {
        "details": "See {IERC20-totalSupply}."
      },
      "transfer(address,uint256)": {
        "details": "See {IERC20-transfer}. Requirements: - `recipient` cannot be the zero address. - the caller must have a balance of at least `amount`."
      },
      "transferFrom(address,address,uint256)": {
        "details": "See {IERC20-transferFrom}. Emits an {Approval} event indicating the updated allowance. This is not required by the EIP. See the note at the beginning of {ERC20}. Requirements: - `sender` and `recipient` cannot be the zero address. - `sender` must have a balance of at least `amount`. - the caller must have allowance for ``sender``'s tokens of at least `amount`."
      },
      "transferOwnership(address)": {
        "details": "Transfers ownership of the contract to a new account (`newOwner`). Can only be called by the current owner."
      }
    },
    "version": 1
  },
  "userdoc": {
    "kind": "user",
    "methods": {},
    "version": 1
  }
}