{
  "contractName": "MaxGasPrice",
  "abi": [
    {
      "anonymous": false,
      "inputs": [
        {
          "indexed": true,
          "internalType": "address",
          "name": "previousOwner",
          "type": "address"
        },
        {
          "indexed": true,
          "internalType": "address",
          "name": "newOwner",
          "type": "address"
        }
      ],
      "name": "OwnershipTransferred",
      "type": "event"
    },
    {
      "inputs": [],
      "name": "maxGasPrice",
      "outputs": [
        {
          "internalType": "uint256",
          "name": "",
          "type": "uint256"
        }
      ],
      "stateMutability": "view",
      "type": "function"
    },
    {
      "inputs": [],
      "name": "owner",
      "outputs": [
        {
          "internalType": "address",
          "name": "",
          "type": "address"
        }
      ],
      "stateMutability": "view",
      "type": "function"
    },
    {
      "inputs": [],
      "name": "renounceOwnership",
      "outputs": [],
      "stateMutability": "nonpayable",
      "type": "function"
    },
    {
      "inputs": [
        {
          "internalType": "address",
          "name": "newOwner",
          "type": "address"
        }
      ],
      "name": "transferOwnership",
      "outputs": [],
      "stateMutability": "nonpayable",
      "type": "function"
    },
    {
      "inputs": [
        {
          "internalType": "uint256",
          "name": "newMax",
          "type": "uint256"
        }
      ],
      "name": "setMaxGasPrice",
      "outputs": [
        {
          "internalType": "bool",
          "name": "",
          "type": "bool"
        }
      ],
      "stateMutability": "nonpayable",
      "type": "function"
    }
  ],
  "bytecode": "0x6080604052670de0b6b3a764000060015534801561001c57600080fd5b5061003961002e61003e60201b60201c565b61004660201b60201c565b61010a565b600033905090565b60008060009054906101000a900473ffffffffffffffffffffffffffffffffffffffff169050816000806101000a81548173ffffffffffffffffffffffffffffffffffffffff021916908373ffffffffffffffffffffffffffffffffffffffff1602179055508173ffffffffffffffffffffffffffffffffffffffff168173ffffffffffffffffffffffffffffffffffffffff167f8be0079c531659141344cd1fd0a4f28419497f9722a3daafe3b4186f6b6457e060405160405180910390a35050565b6106b9806101196000396000f3fe608060405234801561001057600080fd5b50600436106100575760003560e01c80633de39c111461005c578063715018a61461007a5780638da5cb5b14610084578063d2fa635e146100a2578063f2fde38b146100d2575b600080fd5b6100646100ee565b6040516100719190610410565b60405180910390f35b6100826100f4565b005b61008c61017c565b604051610099919061046c565b60405180910390f35b6100bc60048036038101906100b791906104b8565b6101a5565b6040516100c99190610500565b60405180910390f35b6100ec60048036038101906100e79190610547565b610233565b005b60015481565b6100fc61032b565b73ffffffffffffffffffffffffffffffffffffffff1661011a61017c565b73ffffffffffffffffffffffffffffffffffffffff1614610170576040517f08c379a0000000000000000000000000000000000000000000000000000000008152600401610167906105d1565b60405180910390fd5b61017a6000610333565b565b60008060009054906101000a900473ffffffffffffffffffffffffffffffffffffffff16905090565b60006101af61032b565b73ffffffffffffffffffffffffffffffffffffffff166101cd61017c565b73ffffffffffffffffffffffffffffffffffffffff1614610223576040517f08c379a000000000000000000000000000000000000000000000000000000000815260040161021a906105d1565b60405180910390fd5b8160018190555060019050919050565b61023b61032b565b73ffffffffffffffffffffffffffffffffffffffff1661025961017c565b73ffffffffffffffffffffffffffffffffffffffff16146102af576040517f08c379a00000000000000000000000000000000000000000000000000000000081526004016102a6906105d1565b60405180910390fd5b600073ffffffffffffffffffffffffffffffffffffffff168173ffffffffffffffffffffffffffffffffffffffff16141561031f576040517f08c379a000000000000000000000000000000000000000000000000000000000815260040161031690610663565b60405180910390fd5b61032881610333565b50565b600033905090565b60008060009054906101000a900473ffffffffffffffffffffffffffffffffffffffff169050816000806101000a81548173ffffffffffffffffffffffffffffffffffffffff021916908373ffffffffffffffffffffffffffffffffffffffff1602179055508173ffffffffffffffffffffffffffffffffffffffff168173ffffffffffffffffffffffffffffffffffffffff167f8be0079c531659141344cd1fd0a4f28419497f9722a3daafe3b4186f6b6457e060405160405180910390a35050565b6000819050919050565b61040a816103f7565b82525050565b60006020820190506104256000830184610401565b92915050565b600073ffffffffffffffffffffffffffffffffffffffff82169050919050565b60006104568261042b565b9050919050565b6104668161044b565b82525050565b6000602082019050610481600083018461045d565b92915050565b600080fd5b610495816103f7565b81146104a057600080fd5b50565b6000813590506104b28161048c565b92915050565b6000602082840312156104ce576104cd610487565b5b60006104dc848285016104a3565b91505092915050565b60008115159050919050565b6104fa816104e5565b82525050565b600060208201905061051560008301846104f1565b92915050565b6105248161044b565b811461052f57600080fd5b50565b6000813590506105418161051b565b92915050565b60006020828403121561055d5761055c610487565b5b600061056b84828501610532565b91505092915050565b600082825260208201905092915050565b7f4f776e61626c653a2063616c6c6572206973206e6f7420746865206f776e6572600082015250565b60006105bb602083610574565b91506105c682610585565b602082019050919050565b600060208201905081810360008301526105ea816105ae565b9050919050565b7f4f776e61626c653a206e6577206f776e657220697320746865207a65726f206160008201527f6464726573730000000000000000000000000000000000000000000000000000602082015250565b600061064d602683610574565b9150610658826105f1565b604082019050919050565b6000602082019050818103600083015261067c81610640565b905091905056fea264697066735822122040d86107af8e4aa3b0dd67927eaf570e7a838c704c278b56a4cc909ead299cbd64736f6c634300080a0033",
  "immutableReferences": {},
  "source": "pragma solidity ^0.8.10;\n\nimport \"openzeppelin-solidity/contracts/access/Ownable.sol\";\n\ncontract MaxGasPrice is Ownable {\n    uint256 public maxGasPrice = 1 * 10**18;\n\n    modifier validGasPrice() {\n        require(\n            tx.gasprice <= maxGasPrice,\n            \"Must send equal to or lower than maximum gas price to mitigate front running attacks.\"\n        );\n        _;\n    }\n\n    function setMaxGasPrice(uint256 newMax)\n        public\n        onlyOwner\n        returns (bool)\n    {\n        maxGasPrice = newMax;\n        return true;\n    }\n}\n",
  "sourcePath": "C:\\Users\\Vamsi\\demi\\contracts\\MaxGasPrice.sol",
  "compiler": {
    "name": "solc",
    "version": "0.8.10+commit.fc410830.Emscripten.clang"
  },
  "schemaVersion": "3.4.4",
  "updatedAt": "2022-01-23T08:00:15.996Z",
  "devdoc": {
    "kind": "dev",
    "methods": {
      "owner()": {
        "details": "Returns the address of the current owner."
      },
      "renounceOwnership()": {
        "details": "Leaves the contract without owner. It will not be possible to call `onlyOwner` functions anymore. Can only be called by the current owner. NOTE: Renouncing ownership will leave the contract without an owner, thereby removing any functionality that is only available to the owner."
      },
      "transferOwnership(address)": {
        "details": "Transfers ownership of the contract to a new account (`newOwner`). Can only be called by the current owner."
      }
    },
    "version": 1
  },
  "userdoc": {
    "kind": "user",
    "methods": {},
    "version": 1
  }
}